:100000000C940B030C9428030C9428030C942803E1
:100010000C94AD0D0C94D60D0C94FF0D0C94280E81
:100020000C9428030C948E0C0C94B70C0C94E00CDC
:100030000C945B0D0C94090D0C94320D0C94840DF2
:100040000C94130C0C943C0C0C94650C0C9428032D
:100050000C9428030C9428030C9428030C94280374
:100060000C9428030C9428030C9428030C94280364
:100070000C9428030C9428030C942803076342363D
:10008000B79BD8A71A39685618AEBAAB558C1D3C29
:10009000B7CC5763BD6DEDFD753EF6177231BF00ED
:1000A0000000803F08000000BE922449123EABAA27
:1000B000AA2ABECDCCCC4C3E00000080BEABAAAA82
:1000C000AA3E00000000BF000000803F00000000CA
:1000D00000084178D3BB4387D1133D190E3CC3BD03
:1000E0004282AD2B3E68EC8276BED98FE1A93E4CB0
:1000F00080EFFFBE01C4FF7F3F00000000006E6183
:100100006E00696E660000407A10F35A00A0724ECD
:1001100018090010A5D4E80000E87648170000E4AC
:100120000B54020000CA9A3B000000E1F5050000F4
:1001300080969800000040420F000000A086010059
:100140000000102700000000E80300000000640029
:10015000000000000A000000000001000000000094
:100160002C76D888DC674F0823DFC1DFAE59E1B1B8
:10017000B796E5E3E453C63AE651997696E8E6C2C7
:100180008426EB898C9B62ED407C6FFCEFBC9C9FCE
:1001900040F2BAA56FA5F490055A2AF75C936B6CF0
:1001A000F9676DC11BFCE0E40D47FEF520E6B500E4
:1001B000D0ED902E0300943577050080841E080052
:1001C00000204E0A000000C80C333333330F986E02
:1001D00012831141EF8D2114893BE65516CFFEE6BF
:1001E000DB18D1844B381BF77C1D901DA4BBE42485
:1001F000203284725E228100C9F124ECA1E53D2702
:1002000016050100000000000000FA000000E000F8
:10021000E00028FE28FE282454FE5448C4C81026B6
:10022000466C92AA44A000A0C0000000384482009E
:10023000008244380028107C102810107C10100018
:100240000A0C000010101010100006060000040830
:100250001020407C8A92A27C0042FE020042868AE4
:1002600092628482A2D28C182848FE08E4A2A2A23C
:100270009C3C5292920C808E90A0C06C9292926C98
:100280006092929478006C6C0000006A6C00001020
:1002900028448200282828282800824428104080EA
:1002A0008A90604C929E827C7E8888887EFE9292A4
:1002B000926C7C82828244FE82824438FE929292C8
:1002C00082FE909090807C8292925EFE101010FED2
:1002D0000082FE8200040282FC80FE10284482FE1E
:1002E00002020202FE403040FEFE201008FE7C8228
:1002F00082827CFE909090607C828A847AFE9098C4
:100300009462629292928C8080FE8080FC02020253
:10031000FCF8040204F8FC021C02FCC6281028C6E3
:10032000E0100E10E0868A92A2C200FE8282004097
:1003300020100804008282FE00204080402002023B
:100340000202020080402000042A2A2A1EFE1222F5
:10035000221C1C222222041C222212FE1C2A2A2ACF
:1003600018107E908040304A4A4A7CFE1020201EA1
:100370000022BE0200040222BC00FE08142200007B
:1003800082FE02003E2018201E3E1020201E1C224D
:1003900022221C3E28282810102828183E3E102013
:1003A0002010122A2A2A0420FC2202043C02020401
:1003B0003E38040204383C020C023C221408142289
:1003C000300A0A0A3C22262A322200106C820000DF
:1003D00000FE000000826C100008101008100000E1
:1003E0000000007F8181817F7F8383837F7F878778
:1003F000877F7F8F8F8F7F7F9F9F9F7F7FBFBFBFB5
:100400007F7FFFFFFF7F2040FF40206215171565AB
:1004100000FBFB00000000000000C0FF0300E0FF45
:100420000700F0FF0F00F8FF1F0078001E007800A3
:100430001E0078001E0078001E0078001E00780064
:100440001E0078001E0078001E0078001E000000CC
:1004500000000000000080FF0300E0FF0700F0FF45
:100460000F00F8FF1F00F83C1F00783C1E00783C8E
:100470001E00783C1E00783C1E00783C1E00783C34
:100480001E00783C1E00783C1E00783C1E00783C24
:100490001E000000000000000000E0FF0300F0FF6D
:1004A0000700F8FF0F00F8FF1F00783C1E00783CA3
:1004B0001E00783C1E00783C1E00783C1E00783CF4
:1004C0001E00783C1E00783C1E00783C1E00783CE4
:1004D0001E000000000000000000F8FF0300F8FF0D
:1004E0000F00F8FF1F00F8FF1F0000001E000000B3
:1004F0001E0000801F0000F01F0000FF0F00E0FF43
:100500000700F0FF0000F80F0000F800000078007E
:10051000000078000000F8FF1F00F8FF1F00F0FF48
:100520001F00E0FF1F000000000000000000F8FFB7
:100530001F00F8FF1F00F8FF1F00F8FF1F007800E2
:100540001E00783C1E00783C1E00783C1E00783C63
:100550001E00783C1E00783C1E00F87E1F00F8FF4D
:100560001F00F0FF0F00E0E70300000000000000A4
:100570003800EEFF6C002A8045003A0047FC03FF7C
:100580006CFC83FF3900DEFF0B7CD0810BFCD0813B
:100590000BC0D0810BFCD0810B7CDEFF0B0082FFF7
:1005A000397002FF6CF83A0047DC2A8045CCEEFF38
:1005B0006CCC000038000000000C00001E0C000095
:1005C0001E0000001E0000001E0000001E00F8FFBC
:1005D0001F00F8FF1F00F8FF1F00F8FF1F000000BA
:1005E0001E0000001E0000001E0000001E00000093
:1005F0005E000000400000007C00000040000000A1
:10060000400000007C0000003000000010000000EE
:10061000300000007C0011241FBECFEFD8E0DEBF09
:10062000CDBF11E0A0E0B1E0E8EAF9E402C0059036
:100630000D92A239B107D9F722E0A2E9B1E001C0D9
:100640001D92AE3AB207E1F70E949F030C94D224A8
:100650000C9400008FE00E944B0A882311F082E086
:1006600008950E94940381E008958FE00E94580A43
:10067000882319F420E030E013C080917A00806470
:1006800080937A0080917A0086FDFCCF30917800CB
:1006900020917900922F80E0232F30E0282B392BF6
:1006A000C9010895ECE7F0E090818295880F880FEA
:1006B000807C9F73982B90830895582F8091000120
:1006C0008830D8F440917E0021E030E0B90102C0CA
:1006D000660F771F8A95E2F7CB018095842380937C
:1006E0007E0080917E00052E02C0220F331F0A94E7
:1006F000E2F7822B80937E000DC020917E0081E086
:1007000090E0052E02C0880F991F0A94E2F7282B6B
:1007100020937E005093000180917C005F71807E69
:10072000852B80937C0008958FE180937C00EAE71D
:10073000F0E087E0808380818068808308950E9454
:10074000110C0E94030C0E94941980E090E008951F
:100750000F931F9385E00E94580A8823C1F080E41C
:1007600060E00E94BC0400E0802F60E00E94500422
:1007700010E080E061E00E94BC041F5F1038C9F700
:100780000F5F043089F783E060E00E94AA041F91A4
:100790000F9108950F931F9385E00E944B0A8823C1
:1007A00011F082E07AC00E940705182F0E94CA0A41
:1007B0001150123008F06DC08150823008F069C0CD
:1007C0000E94D7048EEA60E00E94BC0482EA60E0E6
:1007D0000E94BC0480EA60E00E94BC0400E513ECC7
:1007E000C8010197F1F780EC60E00E94BC048FE241
:1007F00060E00E94BC0481E860E00E94BC0486E1E5
:1008000060E00E94BC0482E260E00E94BC04C80177
:100810000197F1F78FEA60E00E94BC0486EA60E08D
:100820000E94BC0485EA60E00E94BC0480E090E085
:1008300028E833E1F9013197F1F7019643E0883E6A
:100840009407C1F783EB60E00E94BC0480E460E0A1
:100850000E94BC0483E060E00E94500483E060E0FA
:100860000E94AA0410924602109248021092470277
:1008700085E091E09093AB028093AA0288E10E9408
:1008800089040E94A80384EA60E00E94BC0481E01D
:1008900004C085E00E943B0A87E01F910F910895F4
:1008A000FF920F931F93082FF62E85E00E94580A9F
:1008B0008823A1F01F2D1F770370802F806B60E0CD
:1008C0000E94BC0412951F70812F806160E00E941D
:1008D000BC048F2D8F7060E00E94BC041F910F91AB
:1008E000FF9008950F931F93082F162F85E00E9405
:1008F000580A882359F0812F153108F084E166E009
:10090000869FB0011124802F0E94AA041F910F918D
:1009100008951F93182F85E00E94580A8823C1F07C
:1009200087E00E94490582E06AE00E949A0582E021
:1009300061EB0E949A05612F113208F060E282E0BB
:100940000E949A0589EE8A95F1F787E00E94490591
:100950001F9108950F931F93082F162F85E00E9473
:10096000580A882331F003701F77109344020093D4
:1009700045021F910F9108950F931F93082F162F73
:1009800085E00E94580A882379F0112319F011306C
:1009900021F402C02B9801C02B9A86E08A95F1F7CA
:1009A00080E0602F0E949A051F910F910895239A6D
:1009B000089586E00E944B0A882311F082E0089592
:1009C0000E94F00481E008951F93182F86E00E9492
:1009D000580A882319F0812F0E94F9041F91089565
:1009E000559A569A80E20E940F0F80E40E940F0FE2
:1009F0000895282F85FF04C08BB190E289278BB919
:100A000026FF04C08BB190E489278BB9089582E05A
:100A10000E944B0A882311F082E008950E94A905E4
:100A200080E066E97FE00E94400581E06EE87FE0BB
:100A30000E94400582E066E87FE00E94400586E073
:100A40006EE97FE00E94400583E06EE77FE00E9450
:100A5000400584E06EE77FE00E94400585E06EE798
:100A60007FE00E94400587E06EE77FE00E9440053E
:100A70008FEF8093490287E00E94490581E0089545
:100A8000E82FF0E0EE0FFF1FEF51FE4F7183608300
:100A900008951F93182F82E00E94580A882309F4B2
:100AA00047C0912F977080914902981709F440C070
:100AB0009093490285B1887F892B85B9933011F1D4
:100AC000943028F4913051F0923090F40CC095306D
:100AD00019F19530E0F0963021F50FC0E091E30177
:100AE000F091E40122C0E091E101F091E2011DC02A
:100AF000E091E501F091E60118C0E091ED01F0917F
:100B0000EE0113C0E091E701F091E8010EC0E09121
:100B1000E901F091EA0109C0E091EB01F091EC01EB
:100B200004C0E091EF01F091F001309709F00995D0
:100B30001F9108951F93162F0E94490582E00E947D
:100B4000580A882321F01EBD0DB407FEFDCF1F916A
:100B50000895259A2698279A209A219A229A0895EC
:100B60002F923F924F925F926F927F928F929F92BD
:100B7000AF92BF92CF92DF92EF92FF920F931F93AB
:100B8000DF93CF930F92CDB7DEB7582E962E442E1B
:100B90003901C9821501CE88DF88A88CB98C6A8D8D
:100BA0007B8D81E0981619F1981628F092E099163D
:100BB00009F070C03EC080E0B7010E94E10780E00C
:100BC000642DA30198010981EE24E39471E8C72EF6
:100BD00072E0D72E0E94A108552009F05BC000D01A
:100BE0000F92EDB7FEB71182338222821CC081E0E2
:100BF0000E94E10781E0682DA60195010C8DEE248D
:100C0000E39491E8C92E92E0D92E0E94A1085520C4
:100C100009F040C000D00F92EDB7FEB791828D8DE4
:100C20009E8D938382830E94DE090F900F900F9018
:100C300031C0C7010E94030800D081E892E0EDB7FF
:100C4000FEB792838183842DB301A8012981082DE9
:100C500076016501AC8C882483940E9434090F903E
:100C60000F905520B9F400D000D00F92ADB7BEB7A9
:100C70001196EDB7FEB79182FD01328221828D8DF2
:100C80009E8D948383830E94DE090F900F900F90B6
:100C90000F900F900F90CF91DF911F910F91FF90C8
:100CA000EF90DF90CF90BF90AF909F908F907F900C
:100CB0006F905F904F903F902F9008954F925F926A
:100CC0007F928F929F92AF92BF92CF92DF92EF92DC
:100CD000FF920F931F93DF93CF93CDB7DEB7562FBD
:100CE000942E7C2CAA89BB89CC88DD886E897F896B
:100CF000988D813009F445C0813030F1823009F09F
:100D000066C0513071F0513020F0523009F05FC0B0
:100D100011C080E0B7010E94E10780E0692DA801C1
:100D200006C081E00E94E10781E0682DA6010E94D3
:100D30006C074DC0C7010E940308892DB801482DDA
:100D400096010E94830743C0EDB7FEB739970FB6EF
:100D5000F894FEBF0FBEEDBF4DB65EB60894411CC1
:100D6000511CB283A183F201D382C2827583648352
:100D70009683898D9A8D9087878380E0652FC72C15
:100D80001CC0EDB7FEB739970FB6F894FEBF0FBE83
:100D9000EDBFADB6BEB60894A11CB11CB283A18351
:100DA000F501D382C282758364839683108617828D
:100DB00081E0652FC72CAA24BB240E94B0058DB703
:100DC0009EB709960FB6F8949EBF0FBE8DBFCF9108
:100DD000DF911F910F91FF90EF90DF90CF90BF9028
:100DE000AF909F908F907F905F904F90089587E095
:100DF0000E944B0A882311F082E008950E94310A74
:100E000081E08093800210924A0210924B0210926D
:100E10004D0210924C0210924F0210924E0210920C
:100E200051021092500210925302109252021092EC
:100E300055021092540210925702109256021092CC
:100E400059021092580210925B0210925A021092AC
:100E50005D0210925C0210925F0210925E0210928C
:100E6000610210926002109263021092620210926C
:100E700068021092690210926A0210926B0210923C
:100E80006D0210926E0210926F0210927002109218
:100E900071021092720210927302109275021092F7
:100EA00074021092770210927602109279021092D8
:100EB000780210927B0210927A02109265021092D0
:100EC0006402109267021092660210927F021092E2
:100ED0007E02109280020895EF92FF920F931F936B
:100EE000182F062F7A0160E00E944008812F602FA2
:100EF0000E942108812FB7010E9455081F910F9170
:100F0000FF90EF900895CF92DF92EF92FF920F93B0
:100F10001F93C82E7B01D42E890182E060E00E94DD
:100F200040088C2D6D2D0E943608C701B8010E9423
:100F300082081F910F91FF90EF90DF90CF9008955E
:100F40002EEF8037920714F480E79EEFFC0181E0DA
:100F5000E139F80714F0E0E9F1E09B018EEF60372A
:100F6000780714F420E73EEFA90121E04139520748
:100F700014F040E951E08F2F881F8827881F252F04
:100F8000221F2227221F91E09093800280936D02FE
:100F900020936E02CF01F7FF03C0909581959F4F7C
:100FA0009A0157FF03C0309521953F4F90934D0212
:100FB00080934C0230934F0220934E021092800295
:100FC0000895482F81E080938002CB0123E0693EA1
:100FD000720710F088EE93E0413071F0413018F064
:100FE000423071F405C0909355028093540208C0BA
:100FF0009093550280935402909357028093560227
:1010000010928002089521E020938002AC0183E0D9
:10101000493E580710F048EE53E09B0183E0693EDB
:10102000780710F028EE33E0F8945093550240937F
:101030005402309357022093560278941092800203
:101040000895982F81E080938002913051F0913083
:1010500018F0923041F403C060936D0204C06093B5
:101060006D0260936E0210928002089591E0909359
:101070008002EDE6F2E08193608310928002089591
:10108000982F81E080938002913051F0913018F0D8
:10109000923041F403C060934A0204C060934A0254
:1010A00060934B02109280020895482F81E0809354
:1010B0008002CB0121E06139720710F080E991E0F4
:1010C000413061F0413018F04230C9F40EC0F8945C
:1010D00090934D0280934C02789411C0F8949093B1
:1010E0004F0280934E0278940AC0F89490934D0278
:1010F00080934C0290934F0280934E02789410920A
:1011000080020895AC0181E080938002F894CB01C5
:1011100021E06139720710F080E991E090934F026D
:1011200080934E029A0181E04139580710F020E97E
:1011300031E030934D0220934C027894109280025B
:1011400008958F929F92AF92BF92CF92DF92EF92CB
:10115000FF920F931F93CF93DF93182FF62E4A0120
:101160005901E60187E00E94580A882309F46FC0FC
:10117000812F61E00E944008812FB401A5010E94E7
:101180007811812F6F2D0E942108812F602F0E94DE
:101190006311812FB4010E943B11C114D10499F055
:1011A000113049F0113018F0123069F406C018827D
:1011B00010927C0208C0198204C018821982109211
:1011C0007C0210927D02D0937F02C0937E02EE20BB
:1011D000B9F582E991E090937F0280937E02812F9E
:1011E000B5010E945508812F0E942611113071F01F
:1011F000113018F0123059F512C01092920110926D
:101200007C02809192018823E1F321C01092930126
:1012100010927D02809193018823E1F318C010920F
:1012200092011092930110927C0210927D028091A3
:1012300092018823E1F3809193018823C1F307C0D1
:10124000812FB5010E945508812F0E942611DF9140
:10125000CF911F910F91FF90EF90DF90CF90BF90B3
:10126000AF909F908F9008953F924F925F926F92B0
:101270007F928F929F92AF92BF92CF92DF92EF9226
:10128000FF920F931F93DF93CF93CDB7DEB7982EC6
:101290002B013A01322EB02E0C891D8987E00E9465
:1012A000580A882309F453C082E061E00E94400894
:1012B00080E0B201A3010E94781181E0B701A6018C
:1012C0000E947811892D6B2D0E94360880E0632DD5
:1012D0000E94631181E06A2D0E946311C201B7016F
:1012E0000E9456110115110539F0F8011082118282
:1012F00010927C0210927D0210937F0200937E0276
:101300008820F1F484E991E090937F0280937E023B
:10131000C301B6010E94820882E00E942611109249
:1013200094011092950110927C0210927D0280919E
:1013300094018823E1F3809195018823C1F307C0CC
:10134000C301B6010E94820882E00E942611CF915B
:10135000DF911F910F91FF90EF90DF90CF90BF90A2
:10136000AF909F908F907F906F905F904F903F9045
:1013700008950F931F93182F062F662349F460E0FA
:1013800070E00E945508812F60E070E00E943B11E0
:1013900081E080938002113051F0113018F012304A
:1013A00041F403C00093680204C0009368020093F4
:1013B0006902109280021F910F910895CF92DF92DF
:1013C000EF92FF920F931F93DF93CF93CDB7DEB7CA
:1013D0001B8587E00E94580A8823D1F1113061F003
:1013E000113018F01230A1F511C0EC85FD85809107
:1013F00081028823E1F306C0EC85FD85809182029D
:101400008823E1F3309721F1099522C0CC84DD8453
:10141000EE84FF8400E010E0002351F4809181020B
:10142000882331F0C114D10411F0F601099501E0CF
:10143000112351F480918202882331F0E114F104E8
:1014400011F0F701099511E0002331F3112321F385
:10145000CF91DF911F910F91FF90EF90DF90CF9090
:1014600008953A9A3B9A3C9A3D9A3E9A3F9A88B19F
:10147000837088B90895853160F4E82FF0E0E15D6C
:10148000FD4F8081882329F0808181508083808175
:1014900008958FEF0895853110F080E00895E82FCA
:1014A000F0E0E15DFD4F80818F5F80838150089582
:1014B000853110F080E00895E82FF0E0E15DFD4F08
:1014C0008081811181E008951F93182F80919701E9
:1014D000882341F080919E01882399F01092970112
:1014E00010929E010E94990A8093960188E991E0EA
:1014F00061E040E028E230E00E945C0B81E08093F4
:10150000970190919601133018F0133079F409C0C7
:10151000E12FF0E0EF5FFE4F8081892341F081E011
:1015200006C091FF03C0892F817001C080E01F9128
:1015300008950F931F9381E00E94580A882311F4A5
:1015400000E024C087E00E94490582E06AE00E9432
:101550009A0582E062EB0E949A0518EC812F8A9529
:10156000F1F782E060E00E94A70F082F812F8A9593
:10157000F1F782E060E00E94A70F1A95F1F787E08B
:101580000E94490588E893E10197F1F7802F1F91A8
:101590000F910895DF93CF9300D00F92CDB7DEB7B0
:1015A00081E00E944B0A882311F082E011C00E9462
:1015B00007058150823040F40E94EE0ACE01019668
:1015C0000E94CC1181E004C081E00E943B0A87E0C8
:1015D0000F900F900F90CF91DF9108951092980285
:1015E0001092970210929A021092990210929C0205
:1015F00010929B0210929E0210929D021092A002E5
:1016000010929F0280E991E090938402809383027C
:10161000909386028093850290938802809387023C
:1016200090938A028093890290938C0280938B021C
:1016300084E398E090938E0280938D0290939002C1
:1016400080938F02909392028093910290939402E0
:1016500080939302909396028093950208950F933E
:101660001F93DF93CF93CDB7DEB729970FB6F894CA
:10167000DEBF0FBECDBF8C0188E00E94580A8823D0
:1016800011F491E00DC0CE01019661E040E09801B7
:101690000E945C0B982F882319F48F818823E9F32B
:1016A000892F29960FB6F894DEBF0FBECDBFCF911C
:1016B000DF911F910F910895EF92FF920F931F9367
:1016C000CF93DF93EC01F62EE42E890188E00E948F
:1016D000580A882311F481E026C084E090E00E943B
:1016E000E321FC01009711F482E01DC0F982F0FCB7
:1016F0001E8281E0E81619F48981846089838981DA
:10170000886089831B830A831D830C83D183C083F4
:101710001382128281E080930102CF010E949A0B12
:101720001092010280E0DF91CF911F910F91FF9005
:10173000EF900895CF92DF92EF92FF920F931F9355
:10174000CF93DF93EC018091A102882339F4D093E9
:10175000A302C093A2020E94251247C0C090A20219
:10176000D090A30200E010E0EE24FF2437C0A8814F
:10177000B981FD0164817581F60140815181FA01D1
:10178000848195819B01281B390B37FF0FC0861B75
:10179000970B95838483DB82CA82012B29F4D09333
:1017A000A302C093A20221C0F7010CC0F6018281FE
:1017B00093812115310549F4FD01158214829B8323
:1017C0008A83F601D383C28310C0FD01358324834D
:1017D0000097B9F30F5F1F4F76016C018091A10252
:1017E00090E00817190718F2ECCF8091A1028F5FE3
:1017F0008093A102DF91CF911F910F91FF90EF9005
:10180000DF90CF9008950E94B5110E94200F0E9492
:10181000510E0E9409120E9407050E94CA0A78947C
:101820000895000008951F920F920FB60F92112491
:101830002F933F934F935F936F937F938F939F93D8
:10184000AF93BF93EF93FF93E091C101F091C20179
:10185000309709F00995FF91EF91BF91AF919F915A
:101860008F917F916F915F914F913F912F910F9049
:101870000FBE0F901F9018951F920F920FB60F92E8
:1018800011242F933F934F935F936F937F938F9385
:101890009F93AF93BF93EF93FF93E091C301F091B8
:1018A000C401309709F00995FF91EF91BF91AF9175
:1018B0009F918F917F916F915F914F913F912F9168
:1018C0000F900FBE0F901F9018951F920F920FB69A
:1018D0000F9211242F933F934F935F936F937F93B6
:1018E0008F939F93AF93BF93EF93FF93E091C501C5
:1018F000F091C601309709F00995FF91EF91BF91E2
:10190000AF919F918F917F916F915F914F913F9197
:101910002F910F900FBE0F901F9018951F920F924E
:101920000FB60F9211242F933F934F935F936F93B2
:101930007F938F939F93AF93BF93EF93FF93E09128
:10194000B301F091B401309709F00995FF91EF913F
:10195000BF91AF919F918F917F916F915F914F91C7
:101960003F912F910F900FBE0F901F9018951F92CF
:101970000F920FB60F9211242F933F934F935F93C3
:101980006F937F938F939F93AF93BF93EF93FF9347
:10199000E091B501F091B601309709F00995FF91FA
:1019A000EF91BF91AF919F918F917F916F915F91D7
:1019B0004F913F912F910F900FBE0F901F90189550
:1019C0001F920F920FB60F9211242F933F934F93B4
:1019D0005F936F937F938F939F93AF93BF93EF9397
:1019E000FF93E091B701F091B801309709F00995A4
:1019F000FF91EF91BF91AF919F918F917F916F91E7
:101A00005F914F913F912F910F900FBE0F901F90BC
:101A100018951F920F920FB60F9211242F933F9398
:101A20004F935F936F937F938F939F93AF93BF93E6
:101A3000EF93FF93E091BB01F091BC01309709F067
:101A40000995FF91EF91BF91AF919F918F917F91F8
:101A50006F915F914F913F912F910F900FBE0F901B
:101A60001F9018951F920F920FB60F9211242F936B
:101A70003F934F935F936F937F938F939F93AF9316
:101A8000BF93EF93FF93E091BD01F091BE013097BA
:101A900009F00995FF91EF91BF91AF919F918F91BF
:101AA0007F916F915F914F913F912F910F900FBE5A
:101AB0000F901F9018951F920F920FB60F9211243E
:101AC0002F933F934F935F936F937F938F939F9346
:101AD000AF93BF93EF93FF93E091B901F091BA01F7
:101AE000309709F00995FF91EF91BF91AF919F91C8
:101AF0008F917F916F915F914F913F912F910F90B7
:101B00000FBE0F901F9018951F920F920FB60F9255
:101B100011242F933F934F935F936F937F938F93F2
:101B20009F93AF93BF93EF93FF93E091BF01F09129
:101B3000C001309709F00995FF91EF91BF91AF91E6
:101B40009F918F917F916F915F914F913F912F91D5
:101B50000F900FBE0F901F9018951F920F920FB607
:101B60000F9211242F933F934F935F936F937F9323
:101B70008F939F93AF93BF93EF93FF93E091A9014E
:101B8000F091AA01309709F00995FF91EF91BF916B
:101B9000AF919F918F917F916F915F914F913F9105
:101BA0002F910F900FBE0F901F9018951F920F92BC
:101BB0000FB60F9211242F933F934F935F936F9320
:101BC0007F938F939F93AF93BF93EF93FF93E09196
:101BD000AB01F091AC01309709F00995FF91EF91BD
:101BE000BF91AF919F918F917F916F915F914F9135
:101BF0003F912F910F900FBE0F901F9018951F923D
:101C00000F920FB60F9211242F933F934F935F9330
:101C10006F937F938F939F93AF93BF93EF93FF93B4
:101C2000E091AD01F091AE01309709F00995FF9177
:101C3000EF91BF91AF919F918F917F916F915F9144
:101C40004F913F912F910F900FBE0F901F901895BD
:101C50001F920F920FB60F9211242F933F934F9321
:101C60005F936F937F938F939F93AF93BF93EF9304
:101C7000FF93E091AF01F091B001309709F0099521
:101C8000FF91EF91BF91AF919F918F917F916F9154
:101C90005F914F913F912F910F900FBE0F901F902A
:101CA000189580E10E944B0A882311F082E0089584
:101CB000E1EAF1E01192119281E0E13EF807D1F7FB
:101CC00081E00895FF920F931F93CF93DF93F82E37
:101CD0008AE0F816B1F08F1548F0E8E0FE16B9F189
:101CE000EF1538F1F7E0FF1651F43BC08DE0F81620
:101CF00059F0EBE1FE1689F0FCE0FF1641F001E03F
:101D000041C01092440203C0109244023AC0809134
:101D1000450281508093450234C00E94A80314C03C
:101D200080E061E00E94BC04809144028F5F809358
:101D300044028091440287FFF3CF109244028091C5
:101D4000450281508093450200E011E01CC0809163
:101D500044028823B1F0809144028650809344026B
:101D600010C081E00E94781064EF71E080E090E0A4
:101D70004DE750E024E630E00E94841081E00E94AC
:101D8000DF0F00E010E080914502609144020E9464
:101D90005004002351F185E0F89EC0011124EC01AC
:101DA000CD59DE4F8C0108591E4FFE01849161E030
:101DB0000E94BC042196C017D107B9F780E061E00A
:101DC0000E94BC04809144028A5F80934402809107
:101DD000440290E08C3791053CF0109244028091CF
:101DE000450281508093450211E080914502837045
:101DF00080934502113059F480914602813039F4C4
:101E0000E0914702F0914802309709F0099580E08F
:101E100090E0DF91CF911F910F91FF9008951F9354
:101E2000182F86E00E94580A882319F0812F0E94FB
:101E30001B0F1F91089585FD5D9886FD5E9808959E
:101E4000F8940E947B0F81E00E94280F81E00895A2
:101E5000813049F0F894813020F18230B1F0833044
:101E600009F045C017C02C9A80E880936100109259
:101E7000610080E090E00000019688329105D9F77A
:101E80001092680010926B00089580E880936100C2
:101E900083E004C080E88093610088E08093610063
:101EA00028C080E090E0000001962DE68036920781
:101EB000D1F72C9880E090E0000001962DE6803666
:101EC0009207D1F710927A008FEF8093640080918F
:101ED000680081608093680080916B0084608093CB
:101EE0006B00789483B7816083BF889508958230B2
:101EF00008F078940895249A2C9A089583E58CBD6F
:101F000081E08DBD8DE08A95F1F7089583E58CBD64
:101F10001DBC84EF91E00197F1F708958FE78CBD28
:101F20001DBC84EF91E00197F1F7089583E58CBD26
:101F300081E08DBD8DE08A95F1F7089583E58CBD34
:101F400081E08DBD84EF91E00197F1F708951F9333
:101F5000162F0E94490582E00E94580A882329F022
:101F60001EBD0DB407FEFDCF8EB51F9108958AE00A
:101F70000E943B0A882329F481E00E94DA10109223
:101F8000F201089589E00E943B0A8823B9F4809108
:101F9000F101882311F00E94201182E00E94DA10E2
:101FA0008091FF0190910002009731F00E947B2206
:101FB000109200021092FF011092F10108958130F9
:101FC00029F0823029F40E94C20F08950E94B70FB1
:101FD00008950F931F93CF93DF9380E291E00E94C7
:101FE000E3219C01909300028093FF01892B11F45F
:101FF00080E039C08901C0E0D0E0BE0180E090E01F
:102000000E947A1E20E030E040EA51E40E94D21D96
:1020100027EF35E740E05FE30E944A1F9B01AC01D8
:1020200060E070E080E291E40E94B71F9B01AC0188
:10203000CA01B9012DEC3CEC42E851E40E944A1F70
:102040000E940D1F2AE030E040E050E00E94602135
:10205000F80161937193819391938F012196C83414
:10206000D10559F681E0DF91CF911F910F9108952D
:102070008AE00E944B0A882311F082E008951092B2
:10208000FC011092FB0181E00E94F61081E0809338
:10209000F20108951F9389E00E944B0A882311F0F2
:1020A00082E024C08BE00E94580A8823D9F40E9461
:1020B000E90F182F813011F086E018C01092F3015B
:1020C0001092F4011092F5011092F6018DE06DE589
:1020D00072E10E94381282E00E94F6101093F10122
:1020E00081E004C089E00E943B0A87E01F910895C7
:1020F000813021F0823029F084E008950E94381068
:1021000008950E944A1008956F927F928F929F9235
:10211000AF92BF92CF92DF92EF92FF920F931F93F5
:10212000CF93DF933B014C015A01E9018AE00E9401
:10213000580A882381F1209741F19501442737FD02
:102140004095542FBE01C536D10510F064E670E00D
:1021500080E090E00E94602124E630E040E050E022
:102160000E94702179018A01C401B3010E946012AA
:10217000C7010E942F0B60E070E080E090E00E94B9
:102180006012C5018E199F0904C0A114B10419F091
:10219000C5010E942F0BDF91CF911F910F91FF90EE
:1021A000EF90DF90CF90BF90AF909F908F907F90F7
:1021B0006F900895823029F4809181008E7F809302
:1021C00081008091F101813031F48091F201813000
:1021D00011F4000008958091F101813021F0809187
:1021E000F201813011F45F9857980895982F8091EB
:1021F000F101882331F48091F201882311F4579A78
:102200005F988091F1018823D1F49230C1F410924B
:10221000800010928100809181008860809381000D
:1022200080918100816080938100109285001092DE
:10223000840081E08093890080E98093880008957C
:10224000EFE6F0E080818D7F80830895982F81E014
:1022500080938002913051F0913018F0923041F427
:1022600003C01092680204C01092680210926902C2
:10227000109280020895982F81E08093800291301F
:1022800071F0913018F0923071F405C070935D02D6
:1022900060935C0208C070935D0260935C0270936F
:1022A0005F0260935E0210928002089521E0209305
:1022B0008002ECE5F2E09183808332967183608343
:1022C000109280020895982F81E0809380029130CF
:1022D00051F0913018F0923041F403C060936A02DB
:1022E00004C060936A0260936B02109280020895AA
:1022F0000F931F93CF93DF93EB018A01813001F19C
:10230000813018F0823061F50DC0809154029091B7
:102310005502892B11F080E01AC0109261021092D0
:1023200060021EC08091540290915502892B21F0C9
:1023300080E00E94C51204C01092610210926002F7
:102340008091560290915702892B31F081E0BE01B5
:10235000A8010E94C51204C010926302109262028A
:10236000DF91CF911F910F910895CF93DF93C0E03C
:10237000D0E08C2F60E00E94C4112196C531D105B8
:10238000C1F7DF91CF910895853128F4E82FF0E06F
:10239000E15DFD4F608308951F93CF93DF93EC01C0
:1023A000009799F181E00E94580A882351F187E053
:1023B0000E94490518EC812F8A95F1F782E06AE0C6
:1023C0000E949A0582E064EB0E949A05812F8A950B
:1023D000F1F782E060E00E94A70F8883812F8A9541
:1023E000F1F782E060E00E94A70F89831A95F1F768
:1023F00082E060E00E94A70F8A8387E00E9449057F
:1024000004C0188219828DE28A83DF91CF911F91D7
:10241000089588E00E944B0A882311F082E0089515
:102420001092A1021092A3021092A2021092010235
:102430001092020280E162E373E10E944C120E945A
:1024400029120E94321281E0089581E080930202F5
:10245000089584B5826084BD85B5846085BD8EE4B1
:1024600087BD0895EEE6F0E0808182608083089564
:10247000E82F803268F48051833050F0F0E0EE0FA6
:10248000FF1FEF55FE4F208131817183608302C0B1
:1024900020E030E0C9010895803218F020E030E0FB
:1024A0000AC0E82FF0E0EE0FFF1FEF55FE4F20812E
:1024B000318171836083C90108950E948412089557
:1024C000EF92FF920F931F937B018C018AE00E9491
:1024D000580A8823A1F08091F201882381F0D80165
:1024E000C701880F991FAA1FBB1F9093FE018093FD
:1024F000FD01E114F1040105110509F45F981F9134
:102500000F91FF90EF9008958091F3019091F40165
:10251000A091F501B091F6012091F7013091F801F9
:102520004091F9015091FA01280F391F4A1F5B1F92
:102530002093F3013093F4014093F5015093F60199
:102540008091F3019091F401A091F501B091F60111
:102550008851964FA040B040BCF08BB180588BB9E9
:102560008091F3019091F401A091F501B091F601F1
:102570008851964FA040B0408093F3019093F401AE
:10258000A093F501B093F6010895EF92FF920F9397
:102590001F93CF93DF93EB01882321F0813009F063
:1025A0005AC02DC09A0140E050E0CA01B9010E9412
:1025B00060212091540230915502220F331F40E0D8
:1025C00050E00E94702179018A01A8019701220F31
:1025D000331F441F551FCE01A0E0B0E082179307C0
:1025E000A407B50728F0F0926102E092600233C0C0
:1025F000D695C795D0936102C09360022CC09A0112
:1026000040E050E0CA01B9010E94602120915602C9
:1026100030915702220F331F40E050E00E9470219A
:1026200079018A01A8019701220F331F441F551F0A
:10263000CE01A0E0B0E082179307A407B50728F009
:10264000F0926302E092620206C0D695C795D093DD
:102650006302C0936202DF91CF911F910F91FF90AF
:10266000EF9008950E9439130E9479130E9452132B
:10267000089588E00E94580A882311F484E00895A0
:1026800080910202882311F483E008958091010271
:10269000882311F082E008950E94C6158130E1F38D
:1026A00080E008958091F201813011F58091FB0165
:1026B0009091FC012091FD013091FE01280F391FFE
:1026C0003093FC012093FB018091FB019091FC0170
:1026D000885E93406CF08BB180588BB98091FB0180
:1026E0009091FC01885E93409093FC018093FB01E4
:1026F000089587E00E94580A882309F4AAC08091AF
:10270000540290915502892B09F1809178029091A1
:1027100079022091540230915502820F931F9093B9
:102720007902809378028091780290917902885E94
:102730009340A4F08091780290917902885E934052
:10274000909379028093780241E009C080914C0215
:1027500090914D02909351028093500240E08091FD
:10276000560290915702892B09F180917A0290913B
:102770007B022091560230915702820F931F909353
:102780007B0280937A0280917A0290917B02885E2C
:102790009340A4F080917A0290917B02885E9340EE
:1027A00090937B0280937A0261E009C080914E028F
:1027B00090914F02909353028093520260E0842FD5
:1027C0000E942A1480917402909175022091500207
:1027D00030915102280F391F3093750220937402F3
:1027E0008091740290917502885E934014F440E0E9
:1027F0000BC08091740290917502885E9340909313
:1028000075028093740241E0809176029091770284
:102810002091520230915302280F391F30937702D2
:10282000209376028091760290917702885E9340A1
:1028300014F460E00BC08091760290917702885E7C
:102840009340909377028093760261E0842F0E94F8
:102850006F1408958823F1F020914C0230914D02BD
:102860008091500290915102281B390B12161306C9
:1028700034F48091500290915102019607C0232BAD
:1028800049F080915002909151020197909351022A
:1028900080935002662311F120914E0230914F0235
:1028A0008091520290915302281B390B1216130685
:1028B00054F48091520290915302019690935302E6
:1028C000809352020895232B49F0809152029091F7
:1028D00053020197909353028093520208950F93ED
:1028E0001F93182F062F80918002882309F0E7C0DC
:1028F00080916802882309F05AC08091500290911B
:102900005102892BE9F480910302837E80930302B4
:102910001092710280917C02882309F45DC060915D
:102920006A0280E00E94B909E0917E02F0917F0284
:10293000309709F451C081E0808310927C024CC032
:1029400080914A02813041F480915C0290915D0255
:10295000019711F411E002C01123F1F1E0916F022F
:10296000F0E0ED5EFE4F90910302937E8081892B13
:102970008093030280916D02882321F480916F027D
:102980008F5F03C080916F02815080936F028091AE
:102990006F02837080936F0281E080937102809157
:1029A0004A028130C9F480E00E94721515C09091EE
:1029B0000302937E90930302E0916F02F0E0ED5EDC
:1029C000FE4F8081892B8093030282E08093710205
:1029D000109251021092500280916902882309F0EE
:1029E00059C08091520290915302892BE9F4809151
:1029F00003028F71809303021092720280917D0214
:102A0000882309F45CC060916B0281E00E94B909DF
:102A1000E0917E02F0917F02309709F450C081E08E
:102A2000818310927D024BC080914B02813041F432
:102A300080915E0290915F02019711F401E002C063
:102A40000023E9F1E0917002F0E0E95EFE4F909121
:102A500003029F718081892B8093030280916E0213
:102A6000882321F4809170028F5F03C080917002EF
:102A70008150809370028091700283708093700205
:102A800081E08093720280914B028130C1F40E94F8
:102A9000721515C0909103029F7190930302E0910B
:102AA0007002F0E0E95EFE4F8081892B8093030283
:102AB00082E080937202109253021092520280912F
:102AC0007302882331F483E092E0612F402F0E944B
:102AD000341688B1837090910302892B88B91F91B5
:102AE0000F910895882321F0813009F04EC027C04E
:102AF00080915C0290915D02892B49F080915C028B
:102B000090915D02019790935D0280935C028091A9
:102B10007C028823D1F520915C0230915D02809186
:102B20006002909161022817390779F580E060E032
:102B300070E00E94550881E080937C0208958091A6
:102B40005E0290915F02892B49F080915E02909124
:102B50005F02019790935F0280935E0280917D02F5
:102B6000882399F420915E0230915F028091620285
:102B7000909163022817390741F481E060E070E02A
:102B80000E94550881E080937D020895FF920F9383
:102B90001F93CF93DF938091A102882309F459C03A
:102BA0000091A2021091A302F801C081D1818C8111
:102BB0009D8101979D838C83181619060CF449C0DA
:102BC000898180FF05C08E81882311F481E08E8386
:102BD000898181FF03C0EF81F88509958091A10269
:102BE0008230A8F0F801828193819093A3028093B0
:102BF000A20213821282E0910000F0910100848110
:102C00009581181619063CF0FF24F39405C0109224
:102C1000A3021092A202FF248091A102815080930E
:102C2000A1028091A102882311F40E9431168981AA
:102C300082FF08C08A819B819D838C83C8010E948A
:102C40009A0B08C0C8010E947B2289818F7E8983EC
:102C500001C0FF248F2DDF91CF911F910F91FF9025
:102C60000895109202020895FC0180917102823051
:102C700069F48091070291E08927809307028823F5
:102C800009F03EC08081837E80833AC080915002EB
:102C900090915102C397A4F56623D1F02091500280
:102CA0003091510280E690E0BC01269FC001279F31
:102CB000900D369F900D1124880F892F881F990B36
:102CC000909365028093640281E08093050218C0AE
:102CD000809105028823A1F08091640290916502A1
:102CE00001979093650280936402809164029091B1
:102CF0006502892B29F48081837E808310920502EE
:102D000080917202823069F48091060291E08927F5
:102D100080930602882309F03EC080818F718083F2
:102D200008958091520290915302C397A4F54423D1
:102D3000D1F0209152023091530280E690E0AC0134
:102D4000249FC001259F900D349F900D1124880F62
:102D5000892F881F990B909367028093660281E008
:102D6000809304020895809104028823A1F0809149
:102D700066029091670201979093670280936602C2
:102D80008091660290916702892B29F480818F716E
:102D90008083109204020895CF93DF93FC01308169
:102DA00020912502321303C0208121112CC0EC0197
:102DB0000E94A8038881823081F028F4882301F1E1
:102DC000813031F019C0833069F0843081F014C053
:102DD00081E291E00E94442413C08EE291E00E94BF
:102DE00044240EC08AE391E00E94442409C087E491
:102DF00091E00E94442404C084E591E00E944424B0
:102E0000888180932502DF91CF910895FC01308164
:102E1000FB012081321327C0FC0141815281FB015B
:102E2000218132814217530701F5FC01438154810E
:102E3000FB012381348142175307C9F4FC0145810A
:102E40005681FB01258136814217530791F4FC011D
:102E500047815085FB012781308581E04217530768
:102E600049F080E0089580E0089580E0089580E0D2
:102E7000089580E00895CF93DF93EC0180912402C0
:102E800081110BC09B0141E061E08BE192E00E9467
:102E90005C0B81E08093240211C080912102882381
:102EA00069F080E40E94E40480E00E94640A888360
:102EB00081E00E94640A898310922102DF91CF9100
:102EC0000895CF93DF93EC0180911A0281110BC01A
:102ED0009B0141E061E081E192E00E945C0B81E0B6
:102EE00080931A0244C080911702882309F43FC0DE
:102EF00080E20E94E40483E00E945D038FE493EC8F
:102F00000197F1F700C000000E9435039B838A837C
:102F10006A817B8180E090E00E947A1E20E030E0B0
:102F200040EA5BE30E944A1F6C837D838E839F830C
:102F300084E00E945D038FE493EC0197F1F700C0F9
:102F400000000E9435039B838A836A817B8180E035
:102F500090E00E947A1E20E030E040EA5BE30E94AD
:102F60004A1F688779878A879B8710921702DF91AB
:102F7000CF910895FC0181E0808388EC90E09283FA
:102F800081839483838380E991E09683858390870E
:102F9000878308956F927F928F929F92AF92BF9294
:102FA000CF92DF92EF92FF920F931F93CF93DF9315
:102FB000EC01FB018081813009F057C06894DD2469
:102FC000D1F8D88260E082E00E94B9091F921F9276
:102FD0001F92662463946F920F2EF0E97F2EF02DDE
:102FE0007F921F920F2EF8EC9F2EF02D9F921F9232
:102FF00086E98F9388248394A12CB12CC12C0F2EA9
:10300000F0E9EF2EFF24F394F02D08EC10E026E910
:1030100030E041E062E080E00E945E061F921F9275
:103020001F926F927F921F929F921F928DE78F93B4
:103030002DE730E040E062E080E00E945E06D8824A
:1030400088EC90E09A8389839C838B8380E991E06C
:103050009E838D8398878F838DB79EB742960FB6D8
:10306000F8949EBF0FBE8DBF5CC0FB018181813093
:1030700009F057C06894DD24D1F8D88260E082E07E
:103080000E94B9091F921F921F92662463946F9247
:103090000F2EF0E97F2EF02D7F921F920F2EF8EC6D
:1030A0009F2EF02D9F921F9286E98F938824839400
:1030B000A12CB12CC12C0F2EF0E9EF2EFF24F3949C
:1030C000F02D08EC10E026E930E041E062E080E01D
:1030D0000E945E061F921F921F926F927F921F9214
:1030E0009F921F928DE78F93812C2DE730E041E076
:1030F00062E080E00E945E06D88288EC90E09A83CD
:1031000089839C838B8380E991E09E838D8398875C
:103110008F838DB79EB742960FB6F8949EBF0FBEB1
:103120008DBFDF91CF911F910F91FF90EF90DF90B6
:10313000CF90BF90AF909F908F907F906F900895A9
:10314000CF92DF92EF92FF920F931F93CF93DF9373
:103150008C01EB016C817D818E819F812885398571
:103160004A855B850E94661D20E030E040E05FE319
:103170000E944A1F20E030E040E45FE30E94081F05
:1031800088230CF4A8C083E0F80180836C817D81E2
:103190008E819F81288539854A855B850E94651DC2
:1031A000C62ED72EE82EF92E60E082E00E9472042F
:1031B0008C819D81AE81BF81BF93AF939F938F938D
:1031C00083E691E09F938F930E942E2460E081E03C
:1031D0000E94720488859985AA85BB85BF93AF93A9
:1031E0009F938F938EE691E09F938F930E942E245E
:1031F00060E080E00E947204FF92EF92DF92CF9233
:103200008AE791E09F938F930E942E248FE493ECA2
:103210000197F1F700C000006C2D7D2D8E2D9F2DA4
:103220000E94441E9B01772324F422273327261B68
:10323000370BB901330F880B990B0E947C1E20E0DD
:1032400030E04AEF53E40E944A1F20E030E040E6BD
:1032500050E40E94D21D6B017C016C817D818E81C6
:103260009F8120E030E040EA50E40E94D21DA70197
:1032700096010E944A1F9B01AC0160E070E088E467
:1032800093E40E94651D0E94441EF80172836183CD
:10329000688579858A859B8520E030E040EA50E4A6
:1032A0000E94D21DA70196010E944A1F9B01AC01FA
:1032B00060E070E088E493E40E94651D0E94441E73
:1032C000F801748363838DB79EB742960FB6F89466
:1032D0009EBF0FBE8DBFDF91CF911F910F91FF90C9
:1032E000EF90DF90CF900895CF93DF93EC0168E0EB
:1032F00072E00E940617811114C06F8178858D815C
:103300009E810E9403086B817C8189819A810E9441
:10331000A00789E0FE01A8E0B2E001900D928A9535
:10332000E1F7DF91CF910895CF93DF93CDB7DEB76B
:103330002C970FB6F894DEBF0FBECDBF0E94D90404
:103340000E94CA030E942A030E94F70681E00E949D
:103350005203E6E2F2E01282118214821382168294
:10336000158210861782108285E891E00E9444241D
:1033700088EB9BE00E942F0B0E94A8036BE470E097
:10338000CE0101960E943B1764E670E0CE010196E3
:103390000E94611786E292E00E94BA17BE016F5F39
:1033A0007F4F86E292E00E94A018BE016F5F7F4FC0
:1033B00086E292E00E94CA1786E292E00E947419A7
:1033C000BE016F5F7F4F86E292E00E94CC16D6CF9F
:1033D000A0E1B0E0EEEEF9E10C949D217C011B012F
:1033E0006A01FC0117821682838181FF44C39E011A
:1033F0002F5F3F4F3901F7019381F10193FD8591D3
:1034000093FF81911F01882309F431C3853239F478
:1034100093FD859193FF81911F01853239F4B701A6
:1034200090E00E94F22356016501E5CF10E0512C97
:10343000912CFFE1F915D8F08B3279F038F4803215
:1034400079F08332A1F4F92DF0612EC08D3261F054
:10345000803369F4292D21602DC0392D3260932EDF
:10346000892D8460982E2AC0E92DE86015C097FC4C
:103470002DC020ED280F2A3088F496FE06C03AE0D1
:10348000139F200D1124122F19C08AE0589E200D81
:103490001124522EE92DE0629E2E10C08E3231F49E
:1034A00096FCE5C2F92DF0649F2E08C08C3621F4FD
:1034B000292D2068922E02C0883641F4F10193FD37
:1034C000859193FF81911F018111B3CF9BEB980FE1
:1034D000933020F4992D9061805E07C09BE9980F8E
:1034E000933008F066C1992D9F7E96FF16E09F737A
:1034F000992E853619F49064992E08C0863621F4E9
:10350000392F3068932E02C01111115097FE07C059
:103510001C3350F444244394410E27E00BC0183070
:1035200038F027E017E005C027E09CE3492E02C0F1
:10353000212F412C560184E0A80EB11CF6016081B8
:10354000718182819381042DA3010E9404236C0167
:10355000F981FC87F0FF02C0F3FF06C091FC06C0B2
:1035600092FE06C000E205C00DE203C00BE201C0FE
:1035700000E08C858C7019F001115AC29BC297FE35
:1035800010C04C0CFC85F4FF04C08A81813309F41F
:103590004A94141474F528E0241578F588E0482E30
:1035A0002CC096FC2AC0812F90E08C159D059CF0C4
:1035B0003CEFC3163FEFD30674F0892D8068982E38
:1035C0000AC0E2E0F0E0EC0FFD1FE10FF11D808189
:1035D000803319F411501111F4CF97FE0EC044241A
:1035E0004394410E812F90E0C816D9062CF41C1983
:1035F00004C04424439401C010E097FE06C01C148C
:103600001D0434F4C601019605C085E090E002C0B7
:1036100081E090E001110196112331F0212F30E07B
:103620002F5F3F4F820F931F252D30E082179307A6
:1036300014F4581A01C0512C892D897049F4552071
:1036400039F0B70180E290E00E94F2235A94F7CF5C
:10365000002329F0B701802F90E00E94F22393FC11
:1036600009C0552039F0B70180E390E00E94F223B1
:103670005A94F7CF97FE4CC04601D7FE02C0812C6A
:10368000912CC60188199909F301E80FF91FFE87EB
:10369000ED87960124193109388B2F87012F10E00F
:1036A0001195019511093FEF8316930629F4B7018F
:1036B0008EE290E00E94F223C814D9044CF08F856A
:1036C00098898815990524F4ED85FE85818101C0CE
:1036D00080E3F1E08F1A91082D853E852F5F3F4FE3
:1036E0003E872D87801691062CF0B70190E00E944E
:1036F000F223D9CFC814D90441F49A81963320F427
:10370000953319F43C8534FF81E3B70190E04EC056
:103710008A81813319F09C859F7E9C87B70190E058
:103720000E94F223111105C094FC18C085E690E0B8
:1037300017C0B7018EE290E00E94F2231E5F82E084
:1037400001E0080FF301E80FF11D8081B70190E05F
:103750000E94F223802F0113F3CFE6CF85E490E09F
:10376000B7010E94F223D7FC06C0C114D10441F472
:10377000EC85E4FF05C0D194C194D1088DE201C06D
:103780008BE2B70190E00E94F22380E32AE0C216A8
:10379000D1042CF08F5FFAE0CF1AD108F7CFB70130
:1037A00090E00E94F223B701C601C0960E94F22366
:1037B00054C1833631F0833779F0833509F056C030
:1037C00020C0560132E0A30EB11CF601808189832E
:1037D00001E010E0630112C05601F2E0AF0EB11C2F
:1037E000F601C080D18096FE03C0612F70E002C058
:1037F0006FEF7FEFC6010E94E7238C01F92DFF7761
:1038000014C0560122E0A20EB11CF601C080D18086
:1038100096FE03C0612F70E002C06FEF7FEFC6011C
:103820000E94DC238C01F92DF0689F2EF3FD1AC055
:10383000852D90E008171907A8F4B70180E290E001
:103840000E94F2235A94F4CFF60197FC859197FEDB
:1038500081916F01B70190E00E94F22351105A94B8
:10386000015011090115110579F7F7C0843611F0DF
:10387000893661F5560197FE09C024E0A20EB11CFD
:10388000F60160817181828193810AC0F2E0AF0EFE
:10389000B11CF60160817181072E000C880B990B19
:1038A000F92DFF769F2E97FF09C090958095709512
:1038B00061957F4F8F4F9F4FF0689F2E2AE030E039
:1038C000A3010E947424C82EC6183FC0092D853755
:1038D00021F40F7E2AE030E01DC0097F8F3691F081
:1038E00018F4883559F0C3C0803719F0883711F0C3
:1038F000BEC0006104FF09C0046007C094FE08C098
:10390000066006C028E030E005C020E130E002C0DB
:1039100020E132E0560107FF09C084E0A80EB11C87
:10392000F601608171818281938108C0F2E0AF0E5F
:10393000B11CF6016081718180E090E0A3010E94DA
:103940007424C82EC6180F77902E96FE0BC0092D32
:103950000E7FC11650F494FE0AC092FC08C0092DD7
:103960000E7E05C0DC2C092D03C0DC2C01C0D12E3D
:1039700004FF0DC0FE01EC0DF11D8081803311F4B8
:10398000097E09C002FF06C0D394D39404C0802FDF
:10399000867809F0D39403FD11C000FF06C01C2DEA
:1039A000D51480F4150D1D190DC0D51458F4B701A8
:1039B00080E290E00E94F223D394F7CFD51410F464
:1039C0005D1801C0512C04FF10C0B70180E390E0E6
:1039D0000E94F22302FF17C001FD03C088E790E0B8
:1039E00002C088E590E0B7010CC0802F867859F0BE
:1039F00001FF02C08BE201C080E207FD8DE2B7014A
:103A000090E00E94F223C11638F4B70180E390E001
:103A10000E94F2231150F7CFCA94F301EC0DF11D6F
:103A20008081B70190E00E94F223C110F5CF15C04C
:103A3000F4E0F51560F584E0581A93FE1FC00111FB
:103A400027C02C8523FF2AC00EEF10E0392D3071DE
:103A5000932EF8018491811124C0552009F4E4CCFF
:103A6000B70180E290E00E94F2235A94F6CFF7016A
:103A70008681978126C08FEF9FEF23C0B70180E238
:103A800090E00E94F2235A945110F8CFD8CF512CD5
:103A9000B701802F90E00E94F223D3CF02E011E023
:103AA000D5CF91108052B70190E00E94F2230F5FB2
:103AB0001F4FCFCF23E0251510F483E0BDCF512C4D
:103AC000C0CF6096E2E10C94B9215058BB27AA27D9
:103AD0000E947D1D0C94CE1E0E94C01E38F00E94D4
:103AE000C71E20F039F49F3F19F426F40C94BD1E34
:103AF0000EF4E095E7FB0C94B71EE92F0E94DF1E41
:103B000058F3BA17620773078407950720F079F412
:103B1000A6F50C94011F0EF4E0950B2EBA2FA02DE4
:103B20000B01B90190010C01CA01A0011124FF276A
:103B3000591B99F0593F50F4503E68F11A16F04065
:103B4000A22F232F342F4427585FF3CF4695379564
:103B50002795A795F0405395C9F77EF41F16BA0B29
:103B6000620B730B840BBAF09150A1F0FF0FBB1FD7
:103B7000661F771F881FC2F70EC0BA0F621F731F20
:103B8000841F48F4879577956795B795F7959E3F7D
:103B900008F0B0CF9395880F08F09927EE0F97950E
:103BA000879508950E94E61D0C94CE1E0E94C71EA4
:103BB00058F00E94C01E40F029F45F3F29F00C9499
:103BC000B71E51110C94021F0C94BD1E0E94DF1EE3
:103BD00068F39923B1F3552391F3951B550BBB273C
:103BE000AA2762177307840738F09F5F5F4F220F81
:103BF000331F441FAA1FA9F335D00E2E3AF0E0E878
:103C000032D091505040E695001CCAF72BD0FE2FC1
:103C100029D0660F771F881FBB1F26173707480755
:103C2000AB07B0E809F0BB0B802DBF01FF2793580D
:103C30005F4F3AF09E3F510578F00C94B71E0C94FC
:103C4000021F5F3FE4F3983ED4F38695779567951E
:103C5000B795F7959F5FC9F7880F911D9695879542
:103C600097F90895E1E0660F771F881FBB1F621761
:103C700073078407BA0720F0621B730B840BBA0B1F
:103C8000EE1F88F7E09508950E944B1E6894B111CD
:103C90000C94021F08950E94E71E88F09F5798F029
:103CA000B92F9927B751B0F0E1F0660F771F881F41
:103CB000991F1AF0BA95C9F714C0B13091F00E945B
:103CC000011FB1E008950C94011F672F782F8827FA
:103CD000B85F39F0B93FCCF3869577956795B39582
:103CE000D9F73EF490958095709561957F4F8F4FF1
:103CF0009F4F0895E89409C097FB3EF490958095F6
:103D0000709561957F4F8F4F9F4F9923A9F0F92FA1
:103D100096E9BB279395F695879577956795B7951F
:103D2000F111F8CFFAF4BB0F11F460FF1BC06F5F05
:103D30007F4F8F4F9F4F16C0882311F096E911C017
:103D4000772321F09EE8872F762F05C0662371F038
:103D500096E8862F70E060E02AF09A95660F771F4C
:103D6000881FDAF7880F9695879597F9089597F940
:103D70009F6780E870E060E008959FEF80EC089511
:103D800000240A941616170618060906089500243A
:103D90000A9412161306140605060895092E0394B4
:103DA000000C11F4882352F0BB0F40F4BF2B11F428
:103DB00060FF04C06F5F7F4F8F4F9F4F089557FD87
:103DC0009058440F551F59F05F3F71F04795880F89
:103DD00097FB991F61F09F3F79F087950895121620
:103DE00013061406551FF2CF4695F1DF08C01616CC
:103DF00017061806991FF1CF86957105610508947D
:103E00000895E894BB2766277727CB0197F9089593
:103E10000E94412008F48FEF08950E94E71EA8F148
:103E20009E57B0F1985160F039F1983070F5092E35
:103E30009927660F771F881F991F0A94D1F71CC016
:103E4000BB27993F4CF4B111B1E0B62B672F782F07
:103E50008827985FB1F708C0869577956795B795DD
:103E600008F4B1609395C1F7BB0F30F411F460FF13
:103E700003C06F5F7F4F8F4F3EF490958095709594
:103E800061957F4F8F4F9F4F089568940C94021F48
:103E90000C94011F0E945D1F0C94CE1E0E94C01E38
:103EA00038F00E94C71E20F0952311F00C94B71E25
:103EB0000C94BD1E11240C94021F0E94DF1E70F38F
:103EC000959FC1F3950F50E0551F629FF001729FBF
:103ED000BB27F00DB11D639FAA27F00DB11DAA1FCE
:103EE000649F6627B00DA11D661F829F2227B00D1B
:103EF000A11D621F739FB00DA11D621F839FA00DA6
:103F0000611D221F749F3327A00D611D231F849FF5
:103F1000600D211D822F762F6A2F11249F5750404C
:103F20009AF0F1F088234AF0EE0FFF1FBB1F661FC7
:103F3000771F881F91505040A9F79E3F510580F090
:103F40000C94B71E0C94021F5F3FE4F3983ED4F329
:103F5000869577956795B795F795E7959F5FC1F734
:103F6000FE2B880F911D9695879597F90895FA0174
:103F7000EE0FFF1F309621053105A1F16115710586
:103F800061F48038BFE39B0749F16894903881055C
:103F900061F08038BFEF9B0741F099234AF5FF3F5E
:103FA000E1053105210519F1E8940894E795D90157
:103FB000AA2329F4AB2FBE2FF85FD0F310C0FF5F08
:103FC00070F4A695E0F7F73950F019F0FF3A38F49D
:103FD0009F779F930DD00F9007FC9058089546F05F
:103FE0000C94BD1E60E070E080E89FE308954FE709
:103FF0009F775F934F933F932F930E94D6202F91EB
:104000003F914F915F910E944A1F0C940F2029F419
:1040100016F00C94B71E0C94011F0C94BD1E0E9448
:10402000E71EA8F39638A0F707F80F92E8942BE361
:104030003AEA48EB5FE70E94601F0F920F920F92DF
:104040004DB75EB70F920E941E21ECE7F0E00E9490
:1040500065204F915F91EF91FF91E595EE1FFF1F56
:1040600049F0FE57E0684427EE0F441FFA95E1F748
:104070004195550B0E9498200F9007FE0C948C20C0
:104080000895990F0008550FAA0BE0E8FEEF1616E9
:104090001706E807F907C0F012161306E407F5073C
:1040A00098F0621B730B840B950B39F40A2661F0B0
:1040B000232B242B252B21F408950A2609F4A14053
:1040C000A6958FEF811D811D0895DF93CF931F93D8
:1040D0000F93FF92EF92DF927B018C01689406C0F0
:1040E000DA2EEF010E945D1FFE01E894A591259153
:1040F000359145915591A6F3EF010E947D1DFE017A
:104100009701A801DA9469F7DF90EF90FF900F9183
:104110001F91CF91DF9108959B01AC0160E070E0A9
:1041200080E89FE30C94D21D0C94B71E0C9452218E
:104130000E94E71ED8F39923C9F3940F511DA3F3EE
:104140009150504094F059F0882332F0660F771F59
:10415000881F91505040C1F79E3F51052CF7880FA2
:10416000911D9695879597F908955F3FACF0983E1D
:104170009CF0BB27869577956795B79508F4B16055
:104180009395C1F7BB0F58F711F460FFE8CF6F5F4D
:104190007F4F8F4F9F4FE3CF0C94021F16F00C946C
:1041A00052210C94BD1E68940C94B71E0E94E71E09
:1041B000A8F39923C1F3AEF3DF93CF931F930F932B
:1041C000FF92C92FDD2788232AF02197660F771FDA
:1041D000881FDAF720E030E040E85FEB9FE38839A2
:1041E00020F0803E38F021968F770E94661DE4EA29
:1041F000F0E004C00E94661DE1EDF0E00E94652041
:104200008B01BE01EC01FB2E6F5771097595771F6D
:10421000880B990B0E947C1E28E132E741E35FE3A3
:104220000E945D1FAF2D9801AE01FF900F911F916D
:10423000CF91DF910E947D1D0C94CE1EFA01DC010E
:10424000AA0FBB1F9B01AC01BF5728F422273327BD
:104250004427507820C0B75190F4AB2F00244695E6
:1042600037952795011CA395D2F3002071F0220FFA
:10427000331F441FB395DAF30ED00C94651D6130E3
:104280007105A0E88A07B94630F49B01AC016627A6
:10429000772788279078309621F0208331834283D6
:1042A000538308959F3F31F0915020F4879577957F
:1042B0006795B795880F911D9695879597F90895FD
:1042C000DB018F939F930E949221BF91AF91A29F98
:1042D000800D911DA39F900DB29F900D1124089504
:1042E000A1E21A2EAA1BBB1BFD010DC0AA1FBB1FFA
:1042F000EE1FFF1FA217B307E407F50720F0A21B6C
:10430000B30BE40BF50B661F771F881F991F1A94D8
:1043100069F760957095809590959B01AC01BD0102
:10432000CF0108950E94D421A59F900DB49F900DB8
:10433000A49F800D911D112408952F923F924F92BA
:104340005F926F927F928F929F92AF92BF92CF9225
:10435000DF92EF92FF920F931F93CF93DF93CDB72E
:10436000DEB7CA1BDB0B0FB6F894DEBF0FBECDBFA6
:1043700009942A88398848885F846E847D848C8477
:104380009B84AA84B984C884DF80EE80FD800C8180
:104390001B81AA81B981CE0FD11D0FB6F894DEBF63
:1043A0000FBECDBFED010895A29FB001B39FC00124
:1043B000A39F700D811D1124911DB29F700D811D51
:1043C0001124911D08950F931F93CF93DF93823093
:1043D000910510F482E090E0E091A602F091A7022E
:1043E00020E030E0A0E0B0E0309719F14081518149
:1043F0000281138148175907C8F08417950769F49B
:10440000109731F012960C93129713961C9327C0B5
:104410000093A6021093A70222C02115310519F0BE
:104420004217530718F49A01BD01EF01DF01F801AB
:10443000DBCF21153105F9F0281B390B243031056C
:1044400080F48A819B816115710521F0FB019383C2
:10445000828304C09093A7028093A602FE01329645
:1044600044C0FE01E20FF31F819391932250310962
:10447000398328833AC02091A4023091A502232BCE
:1044800041F420911D0130911E013093A50220932B
:10449000A40220911B0130911C012115310541F42A
:1044A0002DB73EB740911F0150912001241B350BC1
:1044B000E091A402F091A502E217F307A0F42E1BED
:1044C0003F0B2817390778F0AC014E5F5F4F241778
:1044D000350748F04E0F5F1F5093A5024093A4028A
:1044E0008193919302C0E0E0F0E0CF01DF91CF91A2
:1044F0001F910F910895CF93DF93009709F481C026
:10450000FC01329713821282A091A602B091A702F9
:10451000109781F420813181820F931F2091A40292
:104520003091A5022817390751F5F093A502E093C1
:10453000A40267C0ED0120E030E0CE17DF0740F4B1
:104540004A815B819E0141155105F1F0EA01F5CFE9
:10455000D383C28340815181840F951FC817D90727
:1045600059F488819981840F951F029691838083E5
:104570008A819B81938382832115310529F4F093ED
:10458000A702E093A6023DC0E901FB83EA834991BB
:104590005991C40FD51FEC17FD0761F480819181FB
:1045A000840F951F0296E901998388838281938104
:1045B0009B838A83E0E0F0E012968D919C911397A3
:1045C000009719F0FD01DC01F7CF8D919C911197B7
:1045D0009D012E5F3F4F820F931F2091A4023091C7
:1045E000A5022817390769F4309729F41092A70219
:1045F0001092A60202C013821282B093A502A09369
:10460000A402DF91CF910895283008F027E03327E6
:10461000DA01990F311D87FD9160009661057105E2
:1046200039F432602E5F3D9330E32A95E1F7089527
:104630009F3F30F080387105610509F03C5F3C5FB9
:104640003D93913008F08068911DDF93CF931F93C5
:104650000F93FF92EF92192F987F9695E92F9695D9
:104660009695E90FFF27E05AFE4F99273327EE244E
:10467000FF24A701E70105900894079428F4360F5A
:10468000E71EF81E491F511D660F771F881F991FCF
:104690000694A1F70590079428F4E70EF81E491F29
:1046A000561FC11D770F881F991F661F0694A1F71B
:1046B0000590079428F4F80E491F561FC71FD11DF7
:1046C000880F991F661F771F0694A1F7059007941E
:1046D00020F4490F561FC71FD81F990F661F771F59
:1046E000881F0694A9F784911095177041F0D6950C
:1046F000C79557954795F794E7941A95C1F7E6E063
:10470000F1E068941590159135916591959105901A
:104710007FE27395E118F10A430B560BC90BD009E0
:10472000C0F7E10CF11E431F561FC91FD01D7EF4B8
:10473000703311F48A95E6CFE894015030F0080FF9
:104740000AF40027021708F4202F2395022F7A334A
:1047500028F079E37D932A95E9F710C07D932A9597
:1047600089F6069497956795379517951794E118EC
:10477000F10A430B560BC90BD00998F023957E9193
:1047800073957A3308F070E37C932013B8F77E9129
:1047900070617D9330F0839571E37D9370E32A958A
:1047A000E1F71124EF90FF900F911F91CF91DF91CE
:1047B000992787FD90950895FC0105906150704000
:1047C0000110D8F7809590958E0F9F1F0895FC01DA
:1047D0006150704001900110D8F7809590958E0F30
:1047E0009F1F08950F931F93CF93DF93FB012381A6
:1047F00021FD03C08FEF9FEF2CC022FF16C0468122
:104800005781248135814217530744F4A081B18137
:104810009D012F5F3F4F318320838C932681378109
:104820002F5F3F4F3783268314C08B01EC01FB01C0
:104830000084F185E02D0995892BE1F6D8011696C3
:104840008D919C911797019617969C938E9316972E
:10485000CE01DF91CF911F910F910895A0E0B0E0BC
:10486000E4E3F4E20C94AD21AE014B5F5F4FFA013B
:1048700061917191AF018091AA029091AB020E9467
:10488000E819E2E00C94C9210F931F93CF93DF93B3
:10489000E091AA02F091AB02238121FF1BC08C01A1
:1048A000D0E0C0E0F80181918F016091AA0270917F
:1048B000AB02DB011896ED91FC911997882331F03A
:1048C0000995892B79F3DFEFCFEFECCF8AE00995DB
:1048D000892B19F08FEF9FEF02C08D2F9C2FDF9156
:1048E000CF911F910F910895FA01AA27283051F115
:1048F000203181F1E8946F936E7F6E5F7F4F8F4F11
:104900009F4FAF4FB1E03ED0B4E03CD0670F781F6F
:10491000891F9A1FA11D680F791F8A1F911DA11D54
:104920006A0F711D811D911DA11D20D009F468948D
:104930003F912AE0269F11243019305D3193DEF635
:10494000CF010895462F4770405D4193B3E00FD0EB
:10495000C9F7F6CF462F4F70405D4A3318F0495DD6
:1049600031FD4052419302D0A9F7EACFB4E0A695B9
:104970009795879577956795BA95C9F700976105DB
:10498000710508959B01AC010A2E06945795479531
:1049900037952795BA95C9F7620F731F841F951F26
:0849A000A01D0895F894FFCF5B
:1049A8001F020103030000000200000000620E0065
:1049B800000000180C041060C080200000AE022027
:1049C800004578706C6F72696E672E2E2E004176E6
:1049D8006F6964696E672E2E2E00466F6C6C6F7758
:1049E800696E672E2E2E004F4253455256494E4748
:1049F8002E2E2E00556E6B6E6F776E207374617459
:104A08006521004C6566743A20252E32660052698D
:104A18006768743A20252E326600446966663A2033
:104A2800252E3266005374617274696E672E2E2EBD
:024A380000007C
:00000001FF
