S01D00004D6F62696C6520526F626F74696373204C616220352E73726563C6
S11300000C940B030C9428030C9428030C942803DD
S11300100C94210D0C944A0D0C94730D0C949C0DAE
S11300200C9428030C94020C0C942B0C0C94540C7C
S11300300C94CF0C0C947D0C0C94A60C0C94F80C22
S11300400C94870B0C94B00B0C94D90B0C942803D0
S11300500C9428030C9428030C9428030C94280370
S11300600C9428030C9428030C9428030C94280360
S11300700C9428030C9428030C9428030763423639
S1130080B79BD8A71A39685618AEBAAB558C1D3C25
S1130090B7CC5763BD6DEDFD753EF6177231BF00E9
S11300A00000803F08000000BE922449123EABAA23
S11300B0AA2ABECDCCCC4C3E00000080BEABAAAA7E
S11300C0AA3E00000000BF000000803F00000000C6
S11300D000084178D3BB4387D1133D190E3CC3BDFF
S11300E04282AD2B3E68EC8276BED98FE1A93E4CAC
S11300F080EFFFBE01C4FF7F3F00000000006E617F
S11301006E00696E660000407A10F35A00A0724EC9
S113011018090010A5D4E80000E87648170000E4A8
S11301200B54020000CA9A3B000000E1F5050000F0
S113013080969800000040420F000000A086010055
S11301400000102700000000E80300000000640025
S1130150000000000A000000000001000000000090
S11301602C76D888DC674F0823DFC1DFAE59E1B1B4
S1130170B796E5E3E453C63AE651997696E8E6C2C3
S11301808426EB898C9B62ED407C6FFCEFBC9C9FCA
S113019040F2BAA56FA5F490055A2AF75C936B6CEC
S11301A0F9676DC11BFCE0E40D47FEF520E6B500E0
S11301B0D0ED902E0300943577050080841E08004E
S11301C000204E0A000000C80C333333330F986EFE
S11301D012831141EF8D2114893BE65516CFFEE6BB
S11301E0DB18D1844B381BF77C1D901DA4BBE42481
S11301F0203284725E228100C9F124ECA1E53D27FE
S113020016050100000000000000FA000000E000F4
S1130210E00028FE28FE282454FE5448C4C81026B2
S1130220466C92AA44A000A0C0000000384482009A
S1130230008244380028107C102810107C10100014
S11302400A0C00001010101010000606000004082C
S11302501020407C8A92A27C0042FE020042868AE0
S113026092628482A2D28C182848FE08E4A2A2A238
S11302709C3C5292920C808E90A0C06C9292926C94
S11302806092929478006C6C0000006A6C0000101C
S113029028448200282828282800824428104080E6
S11302A08A90604C929E827C7E8888887EFE9292A0
S11302B0926C7C82828244FE82824438FE929292C4
S11302C082FE909090807C8292925EFE101010FECE
S11302D00082FE8200040282FC80FE10284482FE1A
S11302E002020202FE403040FEFE201008FE7C8224
S11302F082827CFE909090607C828A847AFE9098C0
S11303009462629292928C8080FE8080FC0202024F
S1130310FCF8040204F8FC021C02FCC6281028C6DF
S1130320E0100E10E0868A92A2C200FE8282004093
S113033020100804008282FE002040804020020237
S11303400202020080402000042A2A2A1EFE1222F1
S1130350221C1C222222041C222212FE1C2A2A2ACB
S113036018107E908040304A4A4A7CFE1020201E9D
S11303700022BE0200040222BC00FE081422000077
S113038082FE02003E2018201E3E1020201E1C2249
S113039022221C3E28282810102828183E3E10200F
S11303A02010122A2A2A0420FC2202043C020204FD
S11303B03E38040204383C020C023C221408142285
S11303C0300A0A0A3C22262A322200106C820000DB
S11303D000FE000000826C100008101008100000DD
S11303E00000007F8181817F7F8383837F7F878774
S11303F0877F7F8F8F8F7F7F9F9F9F7F7FBFBFBFB1
S11304007F7FFFFFFF7F2040FF40206215171565A7
S113041000FBFB00000000000000C0FF0300E0FF41
S11304200700F0FF0F00F8FF1F0078001E0078009F
S11304301E0078001E0078001E0078001E00780060
S11304401E0078001E0078001E0078001E000000C8
S113045000000000000080FF0300E0FF0700F0FF41
S11304600F00F8FF1F00F83C1F00783C1E00783C8A
S11304701E00783C1E00783C1E00783C1E00783C30
S11304801E00783C1E00783C1E00783C1E00783C20
S11304901E000000000000000000E0FF0300F0FF69
S11304A00700F8FF0F00F8FF1F00783C1E00783C9F
S11304B01E00783C1E00783C1E00783C1E00783CF0
S11304C01E00783C1E00783C1E00783C1E00783CE0
S11304D01E000000000000000000F8FF0300F8FF09
S11304E00F00F8FF1F00F8FF1F0000001E000000AF
S11304F01E0000801F0000F01F0000FF0F00E0FF3F
S11305000700F0FF0000F80F0000F800000078007A
S1130510000078000000F8FF1F00F8FF1F00F0FF44
S11305201F00E0FF1F000000000000000000F8FFB3
S11305301F00F8FF1F00F8FF1F00F8FF1F007800DE
S11305401E00783C1E00783C1E00783C1E00783C5F
S11305501E00783C1E00783C1E00F87E1F00F8FF49
S11305601F00F0FF0F00E0E70300000000000000A0
S11305703800EEFF6C002A8045003A0047FC03FF78
S11305806CFC83FF3900DEFF0B7CD0810BFCD08137
S11305900BC0D0810BFCD0810B7CDEFF0B0082FFF3
S11305A0397002FF6CF83A0047DC2A8045CCEEFF34
S11305B06CCC000038000000000C00001E0C000091
S11305C01E0000001E0000001E0000001E00F8FFB8
S11305D01F00F8FF1F00F8FF1F00F8FF1F000000B6
S11305E01E0000001E0000001E0000001E0000008F
S11305F05E000000400000007C000000400000009D
S1130600400000007C0000003000000010000000EA
S1130610300000007C0011241FBECFEFD8E0DEBF05
S1130620CDBF11E0A0E0B1E0EAE3F4E402C005903C
S11306300D92A834B107D9F722E0A8E4B1E001C0D3
S11306401D92AA35B207E1F70E942A030C941B22DB
S11306500C9400000E94850B0E94770B0E946C177B
S113066080E090E008950F931F9385E00E94CC09E9
S11306708823C1F080E460E00E94300400E0802F11
S113068060E00E94DB0310E080E061E00E9430043F
S11306901F5F1038C9F70F5F043089F783E060E00B
S11306A00E941E041F910F9108950F931F9385E0DC
S11306B00E94BF09882311F082E07AC00E947B0463
S11306C0182F0E943E0A1150123008F06DC081505C
S11306D0823008F069C00E944B048EEA60E00E94F8
S11306E0300482EA60E00E94300480EA60E00E9404
S11306F0300400E513ECC8010197F1F780EC60E0E9
S11307000E9430048FE260E00E94300481E860E0DF
S11307100E94300486E160E00E94300482E260E0DE
S11307200E943004C8010197F1F78FEA60E00E944B
S1130730300486EA60E00E94300485EA60E00E94AA
S1130740300480E090E028E833E1F9013197F1F7D3
S1130750019643E0883E9407C1F783EB60E00E9472
S1130760300480E460E00E94300483E060E00E9492
S1130770DB0383E060E00E941E041092F2011092F9
S1130780F4011092F30184E091E090935702809376
S1130790560288E10E94FD030E94330384EA60E06C
S11307A00E94300481E004C085E00E94AF0987E024
S11307B01F910F910895FF920F931F93082FF62E08
S11307C085E00E94CC098823A1F01F2D1F770370B8
S11307D0802F806B60E00E94300412951F70812F7F
S11307E0806160E00E9430048F2D8F7060E00E9471
S11307F030041F910F91FF9008951F93182F85E0E7
S11308000E94CC098823C1F087E00E94BD0482E0E5
S11308106AE00E940E0582E061EB0E940E05612FE2
S1130820113208F060E282E00E940E0589EE8A959A
S1130830F1F787E00E94BD041F9108950F931F9361
S1130840082F162F85E00E94CC09882331F003700D
S11308501F771093F0010093F1011F910F910895F8
S11308600F931F93082F162F85E00E94CC0988232D
S113087079F0112319F0113021F402C02B9801C032
S11308802B9A86E08A95F1F780E0602F0E940E058E
S11308901F910F910895239A089586E00E94BF093D
S11308A0882311F082E008950E94640481E0089591
S11308B01F93182F86E00E94CC09882319F0812FFA
S11308C00E946D041F910895559A569A80E20E94E1
S11308D0830E80E40E94830E0895282F85FF04C0B0
S11308E08BB190E289278BB926FF04C08BB190E4C9
S11308F089278BB9089582E00E94BF09882311F0EB
S113090082E008950E941D0580E06AE07FE00E9475
S1130910B40481E062E07FE00E94B40482E06AEF04
S11309207EE00E94B40486E062E17FE00E94B404A9
S113093083E062EF7EE00E94B40484E062EF7EE034
S11309400E94B40485E062EF7EE00E94B40487E074
S113095062EF7EE00E94B4048FEF8093F50187E09C
S11309600E94BD0481E00895E82FF0E0EE0FFF1F20
S1130970E956FE4F7183608308951F93182F82E018
S11309800E94CC09882309F447C0912F9770809165
S1130990F501981709F440C09093F50185B1887F5B
S11309A0892B85B9933011F1943028F4913051F0AA
S11309B0923090F40CC0953019F19530E0F09630F7
S11309C021F50FC0E0919901F0919A0122C0E091C4
S11309D09701F09198011DC0E0919B01F0919C0159
S11309E018C0E091A301F091A40113C0E0919D010E
S11309F0F0919E010EC0E0919F01F091A00109C009
S1130A00E091A101F091A20104C0E091A501F0914F
S1130A10A601309709F009951F9108951F93162F89
S1130A200E94BD0482E00E94CC09882321F01EBDEF
S1130A300DB407FEFDCF1F910895259A2698279A95
S1130A40209A219A229A08952F923F924F925F9270
S1130A506F927F928F929F92AF92BF92CF92DF92CA
S1130A60EF92FF920F931F93DF93CF930F92CDB723
S1130A70DEB7582E962E442E3901C9821501CE8830
S1130A80DF88A88CB98C6A8D7B8D81E0981619F16A
S1130A90981628F092E0991609F070C03EC080E0E4
S1130AA0B7010E94550780E0642DA30198010981D4
S1130AB0EE24E3947DE2C72E72E0D72E0E9415083F
S1130AC0552009F05BC000D00F92EDB7FEB711823C
S1130AD0338222821CC081E00E94550781E0682D88
S1130AE0A60195010C8DEE24E3949DE2C92E92E0BB
S1130AF0D92E0E941508552009F040C000D00F924D
S1130B00EDB7FEB791828D8D9E8D938382830E9473
S1130B1052090F900F900F9031C0C7010E947707C0
S1130B2000D08DE292E0EDB7FEB792838183842DED
S1130B30B301A8012981082D76016501AC8C8824B4
S1130B4083940E94A8080F900F905520B9F400D008
S1130B5000D00F92ADB7BEB71196EDB7FEB7918234
S1130B60FD01328221828D8D9E8D948383830E9428
S1130B7052090F900F900F900F900F900F90CF91FC
S1130B80DF911F910F91FF90EF90DF90CF90BF9076
S1130B90AF909F908F907F906F905F904F903F9019
S1130BA02F9008954F925F927F928F929F92AF926F
S1130BB0BF92CF92DF92EF92FF920F931F93DF9336
S1130BC0CF93CDB7DEB7562F942E7C2CAA89BB8940
S1130BD0CC88DD886E897F89988D813009F445C081
S1130BE0813030F1823009F066C0513071F05130FB
S1130BF020F0523009F05FC011C080E0B7010E94BC
S1130C00550780E0692DA80106C081E00E945507C0
S1130C1081E0682DA6010E94E0064DC0C7010E9434
S1130C207707892DB801482D96010E94F70643C025
S1130C30EDB7FEB739970FB6F894FEBF0FBEEDBF00
S1130C404DB65EB60894411C511CB283A183F201D7
S1130C50D382C282758364839683898D9A8D9087AB
S1130C60878380E0652FC72C1CC0EDB7FEB739978A
S1130C700FB6F894FEBF0FBEEDBFADB6BEB6089476
S1130C80A11CB11CB283A183F501D382C2827583F6
S1130C90648396831086178281E0652FC72CAA246B
S1130CA0BB240E9424058DB79EB709960FB6F8940D
S1130CB09EBF0FBE8DBFCF91DF911F910F91FF900B
S1130CC0EF90DF90CF90BF90AF909F908F907F90E8
S1130CD05F904F90089587E00E94BF09882311F028
S1130CE082E008950E94A50981E080932C0210926D
S1130CF0F6011092F7011092F9011092F801109286
S1130D00FB011092FA011092FD011092FC01109265
S1130D10FF011092FE011092010210920002109243
S1130D200302109202021092050210920402109221
S1130D300702109206021092090210920802109201
S1130D400B0210920A0210920D0210920C021092E1
S1130D500F0210920E0210921402109215021092B9
S1130D601602109217021092190210921A0210928F
S1130D701B0210921C0210921D0210921E0210926D
S1130D801F0210922102109220021092230210924C
S1130D90220210922502109224021092270210922D
S1130DA02602109211021092100210921302109255
S1130DB0120210922B0210922A0210922C02089511
S1130DC0EF92FF920F931F93182F062F7A0160E082
S1130DD00E94B407812F602F0E949507812FB701CD
S1130DE00E94C9071F910F91FF90EF900895CF9231
S1130DF0DF92EF92FF920F931F93C82E7B01D42EA4
S1130E00890182E060E00E94B4078C2D6D2D0E9460
S1130E10AA07C701B8010E94F6071F910F91FF901E
S1130E20EF90DF90CF9008952EEF8037920714F45F
S1130E3080E79EEFFC0181E0E139F80714F0E0E976
S1130E40F1E09B018EEF6037780714F420E73EEF62
S1130E50A90121E04139520714F040E951E08F2FF4
S1130E60881F8827881F252F221F2227221F91E0F1
S1130E7090932C028093190220931A02CF01F7FF5A
S1130E8003C0909581959F4F9A0157FF03C03095F9
S1130E9021953F4F9093F9018093F8013093FB0122
S1130EA02093FA0110922C020895482F81E0809338
S1130EB02C02CB0123E0693E720710F088EE93E028
S1130EC0413071F0413018F0423071F405C0909314
S1130ED001028093000208C09093010280930002F3
S1130EE0909303028093020210922C02089521E051
S1130EF020932C02AC0183E0493E580710F048EEE1
S1130F0053E09B0183E0693E780710F028EE33E05C
S1130F10F89450930102409300023093030220930B
S1130F200202789410922C020895982F81E0809305
S1130F302C02913051F0913018F0923041F403C0FA
S1130F406093190204C06093190260931A0210920C
S1130F502C02089591E090932C02E9E1F2E0819350
S1130F60608310922C020895982F81E080932C02C4
S1130F70913051F0913018F0923041F403C06093F5
S1130F80F60104C06093F6016093F70110922C02FD
S1130F900895482F81E080932C02CB0121E0613930
S1130FA0720710F080E991E0413061F0413018F0AF
S1130FB04230C9F40EC0F8949093F9018093F8017B
S1130FC0789411C0F8949093FB018093FA0178947B
S1130FD00AC0F8949093F9018093F8019093FB016F
S1130FE08093FA01789410922C020895AC0181E068
S1130FF080932C02F894CB0121E06139720710F040
S113100080E991E09093FB018093FA019A0181E0D9
S11310104139580710F020E931E03093F901209369
S1131020F801789410922C0208958F929F92AF92B7
S1131030BF92CF92DF92EF92FF920F931F93CF93C1
S1131040DF93182FF62E4A015901E60187E00E942A
S1131050CC09882309F46FC0812F61E00E94B40792
S1131060812FB401A5010E94EC10812F6F2D0E94E5
S11310709507812F602F0E94D710812FB4010E9401
S1131080AF10C114D10499F0113049F0113018F0A7
S1131090123069F406C018821092280208C019821E
S11310A004C0188219821092280210922902D09347
S11310B02B02C0932A02EE20B9F588E491E09093C4
S11310C02B0280932A02812FB5010E94C907812F28
S11310D00E949A10113071F0113018F0123059F545
S11310E012C010924801109228028091480188236E
S11310F0E1F321C010924901109229028091490123
S11311008823E1F318C0109248011092490110920B
S1131110280210922902809148018823E1F38091EA
S113112049018823C1F307C0812FB5010E94C90773
S1131130812F0E949A10DF91CF911F910F91FF9000
S1131140EF90DF90CF90BF90AF909F908F900895D5
S11311503F924F925F926F927F928F929F92AF9243
S1131160BF92CF92DF92EF92FF920F931F93DF9380
S1131170CF93CDB7DEB7982E2B013A01322EB02E85
S11311800C891D8987E00E94CC09882309F453C087
S113119082E061E00E94B40780E0B201A3010E94F2
S11311A0EC1081E0B701A6010E94EC10892D6B2D93
S11311B00E94AA0780E0632D0E94D71081E06A2D67
S11311C00E94D710C201B7010E94CA10011511056F
S11311D039F0F8011082118210922802109229022B
S11311E010932B0200932A028820F1F48AE491E000
S11311F090932B0280932A02C301B6010E94F60742
S113120082E00E949A1010924A0110924B011092AF
S113121028021092290280914A018823E1F38091E7
S11312204B018823C1F307C0C301B6010E94F6072E
S113123082E00E949A10CF91DF911F910F91FF904D
S1131240EF90DF90CF90BF90AF909F908F907F9062
S11312506F905F904F903F9008950F931F93182FB6
S1131260062F662349F460E070E00E94C907812FCD
S113127060E070E00E94AF1081E080932C02113096
S113128051F0113018F0123041F403C000931402ED
S113129004C0009314020093150210922C021F91B3
S11312A00F910895CF92DF92EF92FF920F931F93C5
S11312B0DF93CF93CDB7DEB71B8587E00E94CC09BF
S11312C08823D1F1113061F0113018F01230A1F5FA
S11312D011C0EC85FD8580912D028823E1F306C0C1
S11312E0EC85FD8580912E028823E1F3309721F16E
S11312F0099522C0CC84DD84EE84FF8400E010E0F4
S1131300002351F480912D02882331F0C114D104BB
S113131011F0F601099501E0112351F480912E0298
S1131320882331F0E114F10411F0F701099511E07B
S1131330002331F3112321F3CF91DF911F910F91FA
S1131340FF90EF90DF90CF9008953A9A3B9A3C9AA1
S11313503D9A3E9A3F9A88B1837088B90895853141
S113136060F4E82FF0E0E552FE4F8081882329F0F5
S1131370808181508083808108958FEF0895853125
S113138010F080E00895E82FF0E0E552FE4F8081F0
S11313908F5F808381500895853110F080E0089537
S11313A0E82FF0E0E552FE4F8081811181E008953D
S11313B01F93182F80914D01882341F0809154018F
S11313C0882399F010924D01109254010E940D0A45
S11313D080934C018EE491E061E040E028E230E04B
S11313E00E94D00A81E080934D0190914C0113300A
S11313F018F0133079F409C0E12FF0E0E050FF4F0A
S11314008081892341F081E006C091FF03C0892FC8
S1131410817001C080E01F9108950F931F9381E0B4
S11314200E94CC09882311F400E024C087E00E94C4
S1131430BD0482E06AE00E940E0582E062EB0E9435
S11314400E0518EC812F8A95F1F782E060E00E9486
S11314501B0F082F812F8A95F1F782E060E00E942C
S11314601B0F1A95F1F787E00E94BD0488E893E109
S11314700197F1F7802F1F910F910895DF93CF9378
S113148000D00F92CDB7DEB781E00E94BF09882358
S113149011F082E011C00E947B048150823040F43C
S11314A00E94620ACE0101960E94401181E004C0AC
S11314B081E00E94AF0987E00F900F900F90CF91C9
S11314C0DF91089510924402109243021092460252
S11314D010924502109248021092470210924A025A
S11314E01092490210924C0210924B0280E991E052
S11314F09093300280932F029093320280933102B2
S11315009093340280933302909336028093350291
S1131510909338028093370284E398E090933A02E0
S11315208093390290933C0280933B0290933E0255
S113153080933D029093400280933F029093420235
S11315408093410208950F931F93DF93CF93CDB7F8
S1131550DEB729970FB6F894DEBF0FBECDBF8C015E
S113156088E00E94CC09882311F491E00DC0CE01DB
S1131570019661E040E098010E94D00A982F8823E8
S113158019F48F818823E9F3892F29960FB6F894EB
S1131590DEBF0FBECDBFCF91DF911F910F91089594
S11315A0EF92FF920F931F93CF93DF93EC01F62EEC
S11315B0E42E890188E00E94CC09882311F481E09B
S11315C026C084E090E00E94421FFC01009711F4C1
S11315D082E01DC0F982F0FC1E8281E0E81619F455
S11315E08981846089838981886089831B830A83D4
S11315F01D830C83D183C0831382128281E0809384
S1131600B701CF010E940E0B1092B70180E0DF9169
S1131610CF911F910F91FF90EF900895CF92DF9299
S1131620EF92FF920F931F93CF93DF93EC0180917E
S11316304D02882339F4D0934F02C0934E020E9486
S1131640991147C0C0904E02D0904F0200E010E0C4
S1131650EE24FF2437C0A881B981FD01648175811E
S1131660F60140815181FA01848195819B01281BF7
S1131670390B37FF0FC0861B970B95838483DB825E
S1131680CA82012B29F4D0934F02C0934E0221C089
S1131690F7010CC0F601828193812115310549F4CB
S11316A0FD01158214829B838A83F601D383C2834E
S11316B010C0FD01358324830097B9F30F5F1F4FDA
S11316C076016C0180914D0290E00817190718F219
S11316D0ECCF80914D028F5F80934D02DF91CF91CB
S11316E01F910F91FF90EF90DF90CF9008950E948B
S11316F029110E94940E0E94C50D0E947D110E9422
S11317007B040E943E0A78940895000008951F9275
S11317100F920FB60F9211242F933F934F935F9321
S11317206F937F938F939F93AF93BF93EF93FF93A5
S1131730E0917701F0917801309709F00995FF91D4
S1131740EF91BF91AF919F918F917F916F915F9135
S11317504F913F912F910F900FBE0F901F901895AE
S11317601F920F920FB60F9211242F933F934F9312
S11317705F936F937F938F939F93AF93BF93EF93F5
S1131780FF93E0917901F0917A01309709F009957E
S1131790FF91EF91BF91AF919F918F917F916F9145
S11317A05F914F913F912F910F900FBE0F901F901B
S11317B018951F920F920FB60F9211242F933F93F7
S11317C04F935F936F937F938F939F93AF93BF9345
S11317D0EF93FF93E0917B01F0917C01309709F046
S11317E00995FF91EF91BF91AF919F918F917F9157
S11317F06F915F914F913F912F910F900FBE0F907A
S11318001F9018951F920F920FB60F9211242F93C9
S11318103F934F935F936F937F938F939F93AF9374
S1131820BF93EF93FF93E0916901F0916A013097C0
S113183009F00995FF91EF91BF91AF919F918F911D
S11318407F916F915F914F913F912F910F900FBEB8
S11318500F901F9018951F920F920FB60F9211249C
S11318602F933F934F935F936F937F938F939F93A4
S1131870AF93BF93EF93FF93E0916B01F0916C01F1
S1131880309709F00995FF91EF91BF91AF919F9126
S11318908F917F916F915F914F913F912F910F9015
S11318A00FBE0F901F9018951F920F920FB60F92B4
S11318B011242F933F934F935F936F937F938F9351
S11318C09F93AF93BF93EF93FF93E0916D01F091DA
S11318D06E01309709F00995FF91EF91BF91AF9197
S11318E09F918F917F916F915F914F913F912F9134
S11318F00F900FBE0F901F9018951F920F920FB666
S11319000F9211242F933F934F935F936F937F9381
S11319108F939F93AF93BF93EF93FF93E0917101E4
S1131920F0917201309709F00995FF91EF91BF9101
S1131930AF919F918F917F916F915F914F913F9163
S11319402F910F900FBE0F901F9018951F920F921A
S11319500FB60F9211242F933F934F935F936F937E
S11319607F938F939F93AF93BF93EF93FF93E091F4
S11319707301F0917401309709F00995FF91EF918B
S1131980BF91AF919F918F917F916F915F914F9193
S11319903F912F910F900FBE0F901F9018951F929B
S11319A00F920FB60F9211242F933F934F935F938F
S11319B06F937F938F939F93AF93BF93EF93FF9313
S11319C0E0916F01F0917001309709F00995FF9152
S11319D0EF91BF91AF919F918F917F916F915F91A3
S11319E04F913F912F910F900FBE0F901F9018951C
S11319F01F920F920FB60F9211242F933F934F9380
S1131A005F936F937F938F939F93AF93BF93EF9362
S1131A10FF93E0917501F0917601309709F00995F3
S1131A20FF91EF91BF91AF919F918F917F916F91B2
S1131A305F914F913F912F910F900FBE0F901F9088
S1131A4018951F920F920FB60F9211242F933F9364
S1131A504F935F936F937F938F939F93AF93BF93B2
S1131A60EF93FF93E0915F01F0916001309709F0EB
S1131A700995FF91EF91BF91AF919F918F917F91C4
S1131A806F915F914F913F912F910F900FBE0F90E7
S1131A901F9018951F920F920FB60F9211242F9337
S1131AA03F934F935F936F937F938F939F93AF93E2
S1131AB0BF93EF93FF93E0916101F091620130973E
S1131AC009F00995FF91EF91BF91AF919F918F918B
S1131AD07F916F915F914F913F912F910F900FBE26
S1131AE00F901F9018951F920F920FB60F9211240A
S1131AF02F933F934F935F936F937F938F939F9312
S1131B00AF93BF93EF93FF93E0916301F09164016E
S1131B10309709F00995FF91EF91BF91AF919F9193
S1131B208F917F916F915F914F913F912F910F9082
S1131B300FBE0F901F9018951F920F920FB60F9221
S1131B4011242F933F934F935F936F937F938F93BE
S1131B509F93AF93BF93EF93FF93E0916501F0914F
S1131B606601309709F00995FF91EF91BF91AF910C
S1131B709F918F917F916F915F914F913F912F91A1
S1131B800F900FBE0F901F90189580E10E94BF091F
S1131B90882311F082E00895E7E5F1E011921192B3
S1131BA081E0E739F807D1F781E00895FF920F93B8
S1131BB01F93CF93DF93F82E8AE0F816B1F08F15B8
S1131BC048F0E8E0FE16B9F1EF1538F1F7E0FF163A
S1131BD051F43BC08DE0F81659F0EBE1FE1689F0A4
S1131BE0FCE0FF1641F001E041C01092F00103C097
S1131BF01092F0013AC08091F10181508093F1017B
S1131C0034C00E94330314C080E061E00E943004B9
S1131C108091F0018F5F8093F0018091F00187FF44
S1131C20F3CF1092F0018091F10181508093F10182
S1131C3000E011E01CC08091F0018823B1F0809194
S1131C40F00186508093F00110C081E00E94EC0FF7
S1131C5064EF71E080E090E04DE750E024E630E08E
S1131C600E94F80F81E00E94530F00E010E0809181
S1131C70F1016091F0010E94DB03002351F185E042
S1131C80F89EC0011124EC01CD59DE4F8C01085996
S1131C901E4FFE01849161E00E9430042196C0171A
S1131CA0D107B9F780E061E00E9430048091F0012F
S1131CB08A5F8093F0018091F00190E08C37910568
S1131CC03CF01092F0018091F10181508093F10178
S1131CD011E08091F10183708093F101113059F486
S1131CE08091F201813039F4E091F301F091F40133
S1131CF0309709F0099580E090E0DF91CF911F9132
S1131D000F91FF9008951F93182F86E00E94CC092D
S1131D10882319F0812F0E948F0E1F91089585FD4D
S1131D205D9886FD5E980895F8940E94EF0E81E018
S1131D300E949C0E81E00895813049F0F89481302E
S1131D4020F18230B1F0833009F045C017C02C9ADD
S1131D5080E8809361001092610080E090E00000D0
S1131D60019688329105D9F71092680010926B00A1
S1131D70089580E88093610083E004C080E8809344
S1131D80610088E08093610028C080E090E000005A
S1131D9001962DE680369207D1F72C9880E090E0EA
S1131DA0000001962DE680369207D1F710927A0052
S1131DB08FEF809364008091680081608093680055
S1131DC080916B00846080936B00789483B781600A
S1131DD083BF88950895823008F078940895249AF2
S1131DE02C9A089583E58CBD81E08DBD8DE08A95A4
S1131DF0F1F7089583E58CBD1DBC84EF91E0019754
S1131E00F1F708958FE78CBD1DBC84EF91E0019735
S1131E10F1F7089583E58CBD81E08DBD8DE08A9551
S1131E20F1F7089583E58CBD81E08DBD84EF91E0E9
S1131E300197F1F708951F93162F0E94BD0482E0C5
S1131E400E94CC09882329F01EBD0DB407FEFDCFE6
S1131E508EB51F9108958AE00E94AF09882329F462
S1131E6081E00E944E101092A801089589E00E941A
S1131E70AF098823B9F48091A701882311F00E9447
S1131E80941082E00E944E108091B5019091B601A9
S1131E90009731F00E94DA1F1092B6011092B5013A
S1131EA01092A7010895813029F0823029F40E940C
S1131EB0360F08950E942B0F08950F931F93CF930D
S1131EC0DF9380E291E00E94421F9C019093B6014F
S1131ED08093B501892B11F480E039C08901C0E0F9
S1131EE0D0E0BE0180E090E00E94951B20E030E04D
S1131EF040EA51E40E94231B27EF35E740E05FE30B
S1131F000E94601C9B01AC0160E070E080E291E4FF
S1131F100E94CD1C9B01AC01CA01B9012DEC3CEC23
S1131F2042E851E40E94601C0E94231C2AE030E035
S1131F3040E050E00E94BF1EF801619371938193C9
S1131F4091938F012196C834D10559F681E0DF9130
S1131F50CF911F910F9108958AE00E94BF098823B1
S1131F6011F082E008951092B2011092B10181E063
S1131F700E946A1081E08093A80108951F9389E06C
S1131F800E94BF09882311F082E024C08BE00E94E4
S1131F90CC098823D9F40E945D0F182F813011F0E9
S1131FA086E018C01092A9011092AA011092AB0108
S1131FB01092AC018DE061ED71E10E94AC1182E000
S1131FC00E946A101093A70181E004C089E00E9476
S1131FD0AF0987E01F910895813021F0823029F004
S1131FE084E008950E94AC0F08950E94BE0F0895E6
S1131FF06F927F928F929F92AF92BF92CF92DF9215
S1132000EF92FF920F931F93CF93DF933B014C0109
S11320105A01E9018AE00E94CC09882381F12097C2
S113202041F19501442737FD4095542FBE01C53633
S1132030D10510F064E670E080E090E00E94BF1EDD
S113204024E630E040E050E00E94CF1E79018A018E
S1132050C401B3010E94D411C7010E94A30A60E025
S113206070E080E090E00E94D411C5018E199F09B0
S113207004C0A114B10419F0C5010E94A30ADF91A0
S1132080CF911F910F91FF90EF90DF90CF90BF9071
S1132090AF909F908F907F906F900895823029F435
S11320A0809181008E7F809381008091A70181308F
S11320B031F48091A801813011F4000008958091D9
S11320C0A701813021F08091A801813011F45F983B
S11320D057980895982F8091A701882331F480910F
S11320E0A801882311F4579A5F988091A701882347
S11320F0D1F49230C1F4109280001092810080914A
S11321008100886080938100809181008160809348
S11321108100109285001092840081E080938900F0
S113212080E9809388000895EFE6F0E080818D7F58
S113213080830895982F81E080932C02913051F090
S1132140913018F0923041F403C01092140204C08C
S1132150109214021092150210922C020895982FD6
S113216081E080932C02913071F0913018F092301C
S113217071F405C0709309026093080208C070935B
S113218009026093080270930B0260930A02109292
S11321902C02089521E020932C02E8E0F2E09183E0
S11321A0808332967183608310922C020895982F55
S11321B081E080932C02913051F0913018F09230EC
S11321C041F403C06093160204C060931602609346
S11321D0170210922C0208950F931F93CF93DF934D
S11321E0EB018A01813001F1813018F0823061F510
S11321F00DC08091000290910102892B11F080E0C2
S11322001AC010920D0210920C021EC0809100029E
S113221090910102892B21F080E00E94391204C0C0
S113222010920D0210920C0280910202909103020E
S1132230892B31F081E0BE01A8010E94391204C04B
S113224010920F0210920E02DF91CF911F910F9105
S11322500895CF93DF93C0E0D0E08C2F60E00E941C
S113226038112196C531D105C1F7DF91CF91089579
S1132270853128F4E82FF0E0E552FE4F608308959D
S11322801F93CF93DF93EC01009799F181E00E94B3
S1132290CC09882351F187E00E94BD0418EC812FFA
S11322A08A95F1F782E06AE00E940E0582E064EB11
S11322B00E940E05812F8A95F1F782E060E00E946A
S11322C01B0F8883812F8A95F1F782E060E00E94DA
S11322D01B0F89831A95F1F782E060E00E941B0FBF
S11322E08A8387E00E94BD0404C0188219828DE2AB
S11322F08A83DF91CF911F91089588E00E94BF09DE
S1132300882311F082E0089510924D0210924F023A
S113231010924E021092B7011092B80180E166EA61
S113232072E10E94C0110E949D110E94A61181E0D9
S1132330089581E08093B801089584B5826084BDD6
S113234085B5846085BD8EE487BD0895EEE6F0E032
S11323508081826080830895E82F803268F4805100
S1132360833050F0F0E0EE0FFF1FE95AFE4F20815A
S113237031817183608302C020E030E0C901089597
S1132380803218F020E030E00AC0E82FF0E0EE0FD1
S1132390FF1FE95AFE4F2081318171836083C90197
S11323A008950E94F8110895EF92FF920F931F93DE
S11323B07B018C018AE00E94CC098823A1F08091E2
S11323C0A801882381F0D801C701880F991FAA1F8B
S11323D0BB1F9093B4018093B301E114F104010590
S11323E0110509F45F981F910F91FF90EF900895E4
S11323F08091A9019091AA01A091AB01B091AC0187
S11324002091AD013091AE014091AF015091B001E6
S1132410280F391F4A1F5B1F2093A9013093AA017B
S11324204093AB015093AC018091A9019091AA0112
S1132430A091AB01B091AC018851964FA040B0403F
S1132440BCF08BB180588BB98091A9019091AA01FD
S1132450A091AB01B091AC018851964FA040B0401F
S11324608093A9019093AA01A093AB01B093AC010E
S11324700895EF92FF920F931F93CF93DF93EB0195
S1132480882321F0813009F05AC02DC09A0140E020
S113249050E0CA01B9010E94BF1E20910002309190
S11324A00102220F331F40E050E00E94CF1E790149
S11324B08A01A8019701220F331F441F551FCE0123
S11324C0A0E0B0E082179307A407B50728F0F092C4
S11324D00D02E0920C0233C0D695C795D0930D023D
S11324E0C0930C022CC09A0140E050E0CA01B9012B
S11324F00E94BF1E2091020230910302220F331F5B
S113250040E050E00E94CF1E79018A01A8019701A2
S1132510220F331F441F551FCE01A0E0B0E08217E5
S11325209307A407B50728F0F0920F02E0920E0279
S113253006C0D695C795D0930F02C0930E02DF91C3
S1132540CF911F910F91FF90EF9008950E94AD12CB
S11325500E94ED120E94C612089588E00E94CC09E0
S1132560882311F484E008958091B801882311F43C
S113257083E008958091B701882311F082E00895E3
S11325800E943A158130E1F380E008958091A8011A
S1132590813011F58091B1019091B2012091B30184
S11325A03091B401280F391F3093B2012093B10147
S11325B08091B1019091B201885E93406CF08BB12F
S11325C080588BB98091B1019091B201885E93409B
S11325D09093B2018093B101089587E00E94CC09E1
S11325E0882309F4AAC08091000290910102892BEA
S11325F009F18091240290912502209100023091EA
S11326000102820F931F90932502809324028091EC
S1132610240290912502885E9340A4F080912402C4
S113262090912502885E9340909325028093240222
S113263041E009C08091F8019091F9019093FD0166
S11326408093FC0140E08091020290910302892B67
S113265009F1809126029091270220910202309183
S11326600302820F931F9093270280932602809186
S1132670260290912702885E9340A4F0809126025E
S113268090912702885E93409093270280932602BC
S113269061E009C08091FA019091FB019093FF01E0
S11326A08093FE0160E0842F0E949E13809120029B
S11326B0909121022091FC013091FD01280F391FD6
S11326C030932102209320028091200290912102D4
S11326D0885E934014F440E00BC0809120029091F6
S11326E02102885E9340909321028093200241E06E
S11326F080912202909123022091FE013091FF01EA
S1132700280F391F30932302209322028091220242
S113271090912302885E934014F460E00BC0809192
S1132720220290912302885E934090932302809327
S1132730220261E0842F0E94E31308958823F1F0BC
S11327402091F8013091F9018091FC019091FD01F3
S1132750281B390B1216130634F48091FC01909156
S1132760FD01019607C0232B49F08091FC01909153
S1132770FD0101979093FD018093FC01662311F103
S11327802091FA013091FB018091FE019091FF01AB
S1132790281B390B1216130654F48091FE019091F4
S11327A0FF0101969093FF018093FE010895232B6E
S11327B049F08091FE019091FF0101979093FF01F0
S11327C08093FE0108950F931F93182F062F809175
S11327D02C02882309F0E7C080911402882309F0B1
S11327E05AC08091FC019091FD01892BE9F48091FC
S11327F0B901837E8093B90110921D028091280251
S1132800882309F45DC06091160280E00E942D09BE
S1132810E0912A02F0912B02309709F451C081E033
S11328208083109228024CC08091F601813041F4DB
S11328308091080290910902019711F411E002C0FD
S11328401123F1F1E0911B02F0E0EE5EFE4F909156
S1132850B901937E8081892B8093B90180911902FB
S1132860882321F480911B028F5F03C080911B0297
S1132870815080931B0280911B02837080931B0202
S113288081E080931D028091F6018130C9F480E0DB
S11328900E94E61415C09091B901937E9093B901FA
S11328A0E0911B02F0E0EE5EFE4F8081892B809365
S11328B0B90182E080931D021092FD011092FC0187
S11328C080911502882309F059C08091FE019091EE
S11328D0FF01892BE9F48091B9018F718093B901CB
S11328E010921E0280912902882309F45CC0609131
S11328F0170281E00E942D09E0912A02F0912B0237
S1132900309709F450C081E08183109229024BC0B2
S11329108091F701813041F480910A0290910B0279
S1132920019711F401E002C00023E9F1E0911C02D7
S1132930F0E0EA5EFE4F9091B9019F718081892B8E
S11329408093B90180911A02882321F480911C029A
S11329508F5F03C080911C02815080931C02809180
S11329601C02837080931C0281E080931E0280917C
S1132970F7018130C1F40E94E61415C09091B901A9
S11329809F719093B901E0911C02F0E0EA5EFE4F62
S11329908081892B8093B90182E080931E0210927A
S11329A0FF011092FE0180911F02882331F489EB0C
S11329B091E0612F402F0E94A81588B183709091F7
S11329C0B901892B88B91F910F910895882321F0AB
S11329D0813009F04EC027C080910802909109020D
S11329E0892B49F0809108029091090201979093F4
S11329F0090280930802809128028823D1F520914E
S1132A0008023091090280910C0290910D0228175E
S1132A10390779F580E060E070E00E94C90781E041
S1132A2080932802089580910A0290910B02892BC9
S1132A3049F080910A0290910B02019790930B0246
S1132A4080930A0280912902882399F420910A0232
S1132A5030910B0280910E0290910F0228173907D2
S1132A6041F481E060E070E00E94C90781E0809356
S1132A7029020895FF920F931F93CF93DF938091C0
S1132A804D02882309F459C000914E0210914F025F
S1132A90F801C081D1818C819D8101979D838C83B4
S1132AA0181619060CF449C0898180FF05C08E816F
S1132AB0882311F481E08E83898181FF03C0EF8133
S1132AC0F885099580914D028230A8F0F801828141
S1132AD0938190934F0280934E0213821282E0916D
S1132AE00000F091010084819581181619063CF0CC
S1132AF0FF24F39405C010924F0210924E02FF245B
S1132B0080914D02815080934D0280914D02882323
S1132B1011F40E94A515898182FF08C08A819B81D6
S1132B209D838C83C8010E940E0B08C0C8010E94BB
S1132B30DA1F89818F7E898301C0FF248F2DDF9165
S1132B40CF911F910F91FF9008951092B8010895AD
S1132B50FC0180911D02823069F48091BD0191E0F5
S1132B6089278093BD01882309F03EC08081837E3C
S1132B7080833AC08091FC019091FD01C397A4F534
S1132B806623D1F02091FC013091FD0180E690E0B4
S1132B90BC01269FC001279F900D369F900D1124E4
S1132BA0880F892F881F990B90931102809310022C
S1132BB081E08093BB0118C08091BB018823A1F000
S1132BC080911002909111020197909311028093C9
S1132BD010028091100290911102892B29F48081B6
S1132BE0837E80831092BB0180911E02823069F43F
S1132BF08091BC0191E089278093BC01882309F06E
S1132C003EC080818F71808308958091FE019091F0
S1132C10FF01C397A4F54423D1F02091FE01309124
S1132C20FF0180E690E0AC01249FC001259F900D38
S1132C30349F900D1124880F892F881F990B90932E
S1132C4013028093120281E08093BA010895809167
S1132C50BA018823A1F08091120290911302019786
S1132C6090931302809312028091120290911302A6
S1132C70892B29F480818F7180831092BA01089581
S1132C80CF93DF93FC0130812091D101321303C033
S1132C902081211116C0EC010E9433038881813008
S1132CA021F060F0823031F409C080E291E00E94AA
S1132CB08D2104C08DE291E00E948D218881809352
S1132CC0D101DF91CF910895FC013081FB01208176
S1132CD0321327C0FC0141815281FB0121813281E1
S1132CE04217530701F5FC0143815481FB01238101
S1132CF0348142175307C9F4FC0145815681FB0115
S1132D00258136814217530791F4FC014781508590
S1132D10FB012781308581E04217530749F080E0A9
S1132D20089580E0089580E0089580E0089580E0AB
S1132D300895CF93DF93EC018091D00181110BC0F2
S1132D409B0141E061E087EC91E00E94D00A81E0C0
S1132D508093D00111C08091CD01882369F080E473
S1132D600E94580480E00E94D809888381E00E9470
S1132D70D80989831092CD01DF91CF910895FC0188
S1132D8081E0808388EC90E09283818394838383C1
S1132D9080E991E0968385839087878308955F9285
S1132DA06F927F928F929F92AF92BF92CF92DF9257
S1132DB0EF92FF920F931F93CF93DF93EC01FB01EC
S1132DC09081913009F058C06894DD24D1F8D882FC
S1132DD060E082E00E942D091F921F921F925524E9
S1132DE053945F920F2EF0E96F2EF02D6F921F9285
S1132DF00F2EF8EC7F2EF02D7F921F920F2EF6E906
S1132E009F2EF02D9F9288248394A12CB12CC12C49
S1132E100F2EF0E9EF2EFF24F394F02D08EC10E0D0
S1132E2026E930E041E062E080E00E94D2051F9292
S1132E301F921F925F926F921F927F921F929F9296
S1132E4026E930E040E062E080E00E94D205D882CA
S1132E5088EC90E09A8389839C838B8380E991E05A
S1132E609E838D8398878F838DB79EB742960FB6C6
S1132E70F8949EBF0FBE8DBFDF91CF911F910F912C
S1132E80FF90EF90DF90CF90BF90AF909F908F9086
S1132E907F906F905F900895CF93DF93EC016EEB7A
S1132EA071E00E946416811114C06F8178858D8150
S1132EB09E810E9477076B817C8189819A810E941F
S1132EC0140789E0FE01AEEBB1E001900D928A9502
S1132ED0E1F7DF91CF910895CF93DF9300D0CDB781
S1132EE0DEB70E944D040E9455030E946B06E2ED7A
S1132EF0F1E01282118214821382168215821086E6
S1132F00178210828CE391E00E948D2188EB9BE074
S1132F100E94A30A0E9433036DE770E0CE0101967C
S1132F200E94991682ED91E00E94BF16BE016F5F68
S1132F307F4F82ED91E00E94CF1682ED91E00E94D6
S1132F404C1782ED91E00E944016E6CFA0E1B0E07C
S1132F50ECEAF7E10C94FC1E7C011B016A01FC0104
S1132F6017821682838181FF44C39E012F5F3F4FE6
S1132F703901F7019381F10193FD859193FF8191CB
S1132F801F01882309F431C3853239F493FD8591F7
S1132F9093FF81911F01853239F4B70190E00E94BB
S1132FA0512156016501E5CF10E0512C912CFFE130
S1132FB0F915D8F08B3279F038F4803279F0833215
S1132FC0A1F4F92DF0612EC08D3261F0803369F4E3
S1132FD0292D21602DC0392D3260932E892D8460D6
S1132FE0982E2AC0E92DE86015C097FC2DC020ED6D
S1132FF0280F2A3088F496FE06C03AE0139F200D6D
S11330001124122F19C08AE0589E200D1124522E2B
S1133010E92DE0629E2E10C08E3231F496FCE5C29A
S1133020F92DF0649F2E08C08C3621F4292D2068D8
S1133030922E02C0883641F4F10193FD859193FFED
S113304081911F018111B3CF9BEB980F933020F432
S1133050992D9061805E07C09BE9980F933008F02A
S113306066C1992D9F7E96FF16E09F73992E853633
S113307019F49064992E08C0863621F4392F3068EB
S1133080932E02C01111115097FE07C01C3350F447
S113309044244394410E27E00BC0183038F027E055
S11330A017E005C027E09CE3492E02C0212F412CE4
S11330B0560184E0A80EB11CF60160817181828101
S11330C09381042DA3010E9463206C01F981FC8784
S11330D0F0FF02C0F3FF06C091FC06C092FE06C0DA
S11330E000E205C00DE203C00BE201C000E08C85E4
S11330F08C7019F001115AC29BC297FE10C04C0C7F
S1133100FC85F4FF04C08A81813309F44A941414C1
S113311074F528E0241578F588E0482E2CC096FC38
S11331202AC0812F90E08C159D059CF03CEFC316BE
S11331303FEFD30674F0892D8068982E0AC0E2E030
S1133140F0E0EC0FFD1FE10FF11D8081803319F4D5
S113315011501111F4CF97FE0EC044244394410E34
S1133160812F90E0C816D9062CF41C1904C04424FD
S1133170439401C010E097FE06C01C141D0434F4EF
S1133180C601019605C085E090E002C081E090E0B0
S113319001110196112331F0212F30E02F5F3F4FB1
S11331A0820F931F252D30E08217930714F4581AC9
S11331B001C0512C892D897049F4552039F0B7018B
S11331C080E290E00E9451215A94F7CF002329F025
S11331D0B701802F90E00E94512193FC09C0552033
S11331E039F0B70180E390E00E9451215A94F7CF5F
S11331F097FE4CC04601D7FE02C0812C912CC6011B
S113320088199909F301E80FF91FFE87ED879601E4
S113321024193109388B2F87012F10E0119501955E
S113322011093FEF8316930629F4B7018EE290E06B
S11332300E945121C814D9044CF08F8598898815AF
S1133240990524F4ED85FE85818101C080E3F1E0D8
S11332508F1A91082D853E852F5F3F4F3E872D871E
S1133260801691062CF0B70190E00E945121D9CF2D
S1133270C814D90441F49A81963320F4953319F48F
S11332803C8534FF81E3B70190E04EC08A818133ED
S113329019F09C859F7E9C87B70190E00E94512184
S11332A0111105C094FC18C085E690E017C0B70161
S11332B08EE290E00E9451211E5F82E001E0080F3F
S11332C0F301E80FF11D8081B70190E00E945121C4
S11332D0802F0113F3CFE6CF85E490E0B7010E947D
S11332E05121D7FC06C0C114D10441F4EC85E4FF9C
S11332F005C0D194C194D1088DE201C08BE2B7011D
S113330090E00E94512180E32AE0C216D1042CF0FF
S11333108F5FFAE0CF1AD108F7CFB70190E00E948F
S11333205121B701C601C0960E94512154C1833670
S113333031F0833779F0833509F056C020C0560147
S113334032E0A30EB11CF6018081898301E010E014
S1133350630112C05601F2E0AF0EB11CF601C08049
S1133360D18096FE03C0612F70E002C06FEF7FEF43
S1133370C6010E9446218C01F92DFF7714C0560125
S113338022E0A20EB11CF601C080D18096FE03C0DB
S1133390612F70E002C06FEF7FEFC6010E943B21F6
S11333A08C01F92DF0689F2EF3FD1AC0852D90E055
S11333B008171907A8F4B70180E290E00E94512190
S11333C05A94F4CFF60197FC859197FE81916F0191
S11333D0B70190E00E94512151105A9401501109F3
S11333E00115110579F7F7C0843611F0893661F5B6
S11333F0560197FE09C024E0A20EB11CF6016081BB
S11334007181828193810AC0F2E0AF0EB11CF60192
S113341060817181072E000C880B990BF92DFF76C2
S11334209F2E97FF09C090958095709561957F4F69
S11334308F4F9F4FF0689F2E2AE030E0A3010E9437
S1133440BD21C82EC6183FC0092D853721F40F7E33
S11334502AE030E01DC0097F8F3691F018F48835DA
S113346059F0C3C0803719F0883711F0BEC000612D
S113347004FF09C0046007C094FE08C0066006C0CB
S113348028E030E005C020E130E002C020E132E075
S1133490560107FF09C084E0A80EB11CF601608143
S11334A071818281938108C0F2E0AF0EB11CF601F4
S11334B06081718180E090E0A3010E94BD21C82E4B
S11334C0C6180F77902E96FE0BC0092D0E7FC116DD
S11334D050F494FE0AC092FC08C0092D0E7E05C06B
S11334E0DC2C092D03C0DC2C01C0D12E04FF0DC03F
S11334F0FE01EC0DF11D8081803311F4097E09C0B9
S113350002FF06C0D394D39404C0802F867809F0B8
S1133510D39403FD11C000FF06C01C2DD51480F404
S1133520150D1D190DC0D51458F4B70180E290E0B3
S11335300E945121D394F7CFD51410F45D1801C023
S1133540512C04FF10C0B70180E390E00E94512188
S113355002FF17C001FD03C088E790E002C088E5C0
S113356090E0B7010CC0802F867859F001FF02C0AB
S11335708BE201C080E207FD8DE2B70190E00E947A
S11335805121C11638F4B70180E390E00E94512123
S11335901150F7CFCA94F301EC0DF11D8081B701EE
S11335A090E00E945121C110F5CF15C0F4E0F5154B
S11335B060F584E0581A93FE1FC0011127C02C85C2
S11335C023FF2AC00EEF10E0392D3071932EF8013D
S11335D08491811124C0552009F4E4CCB70180E220
S11335E090E00E9451215A94F6CFF7018681978189
S11335F026C08FEF9FEF23C0B70180E290E00E94C6
S113360051215A945110F8CFD8CF512CB701802FA3
S113361090E00E945121D3CF02E011E0D5CF911068
S11336208052B70190E00E9451210F5F1F4FCFCF0E
S113363023E0251510F483E0BDCF512CC0CF609654
S1133640E2E10C94181F0E94371B0C94E91B0E94A2
S1133650E21B58F00E94DB1B40F029F45F3F29F085
S11336600C94D21B51110C941D1C0C94D81B0E9459
S1133670FA1B68F39923B1F3552391F3951B550B6A
S1133680BB27AA2762177307840738F09F5F5F4F31
S1133690220F331F441FAA1FA9F335D00E2E3AF070
S11336A0E0E832D091505040E695001CCAF72BD088
S11336B0FE2F29D0660F771F881FBB1F26173707D9
S11336C04807AB07B0E809F0BB0B802DBF01FF270B
S11336D093585F4F3AF09E3F510578F00C94D21BFB
S11336E00C941D1C5F3FE4F3983ED4F386957795C4
S11336F06795B795F7959F5FC9F7880F911D9695C4
S1133700879597F90895E1E0660F771F881FBB1F1F
S1133710621773078407BA0720F0621B730B840BCC
S1133720BA0BEE1F88F7E0950895E89409C097FB5B
S11337303EF490958095709561957F4F8F4F9F4F84
S11337409923A9F0F92F96E9BB279395F6958795C8
S113375077956795B795F111F8CFFAF4BB0F11F48B
S113376060FF1BC06F5F7F4F8F4F9F4F16C0882332
S113377011F096E911C0772321F09EE8872F762F68
S113378005C0662371F096E8862F70E060E02AF0A9
S11337909A95660F771F881FDAF7880F9695879595
S11337A097F9089597F99F6780E870E060E00895BD
S11337B09FEF80EC089500240A9416161706180645
S11337C00906089500240A94121613061406050621
S11337D00895092E0394000C11F4882352F0BB0FB2
S11337E040F4BF2B11F460FF04C06F5F7F4F8F4F15
S11337F09F4F089557FD9058440F551F59F05F3F50
S113380071F04795880F97FB991F61F09F3F79F0FE
S113381087950895121613061406551FF2CF469580
S1133820F1DF08C0161617061806991FF1CF869502
S11338307105610508940895E894BB2766277727E6
S1133840CB0197F908950E94021CA8F19E57B0F18C
S1133850985160F039F1983070F5092E9927660F68
S1133860771F881F991F0A94D1F71CC0BB27993F63
S11338704CF4B111B1E0B62B672F782F8827985FED
S1133880B1F708C0869577956795B79508F4B16048
S11338909395C1F7BB0F30F411F460FF03C06F5F61
S11338A07F4F8F4F3EF490958095709561957F4F33
S11338B08F4F9F4F089568940C941D1C0C941C1CEE
S11338C00E94731C0C94E91B0E94DB1B38F00E94BD
S11338D0E21B20F0952311F00C94D21B0C94D81BFE
S11338E011240C941D1C0E94FA1B70F3959FC1F3C4
S11338F0950F50E0551F629FF001729FBB27F00D9A
S1133900B11D639FAA27F00DB11DAA1F649F6627EE
S1133910B00DA11D661F829F2227B00DA11D621F3D
S1133920739FB00DA11D621F839FA00D611D221FF7
S1133930749F3327A00D611D231F849F600D211DDB
S1133940822F762F6A2F11249F5750409AF0F1F05E
S113395088234AF0EE0FFF1FBB1F661F771F881FC7
S113396091505040A9F79E3F510580F00C94D21B12
S11339700C941D1C5F3FE4F3983ED4F38695779531
S11339806795B795F795E7959F5FC1F7FE2B880F6D
S1133990911D9695879597F90895FA01EE0FFF1FEB
S11339A0309621053105A1F16115710561F4803866
S11339B0BFE39B0749F168949038810561F0803832
S11339C0BFEF9B0741F099234AF5FF3FE10531051D
S11339D0210519F1E8940894E795D901AA2329F45B
S11339E0AB2FBE2FF85FD0F310C0FF5F70F4A69525
S11339F0E0F7F73950F019F0FF3A38F49F779F93C6
S1133A000DD00F9007FC9058089546F00C94D81BE5
S1133A1060E070E080E89FE308954FE79F775F934D
S1133A204F933F932F930E94C81D2F913F914F9125
S1133A305F910E94601C0C94251D29F416F00C94CF
S1133A40D21B0C941C1C0C94D81B0E94021CA8F3BF
S1133A509638A0F707F80F92E8942BE33AEA48EB7C
S1133A605FE70E94761C0F920F920F924DB75EB7DC
S1133A700F920E94101EECE7F0E00E94571D4F9138
S1133A805F91EF91FF91E595EE1FFF1F49F0FE57FF
S1133A90E0684427EE0F441FFA95E1F74195550B72
S1133AA00E948A1D0F9007FE0C947E1D0895DF93DB
S1133AB0CF931F930F93FF92EF92DF927B018C01C0
S1133AC0689406C0DA2EEF010E94731CFE01E8948C
S1133AD0A5912591359145915591A6F3EF010E9449
S1133AE05C1EFE019701A801DA9469F7DF90EF905C
S1133AF0FF900F911F91CF91DF9108959B01AC012D
S1133B0060E070E080E89FE30C94231B0C94D21BCC
S1133B100C94B11E0E94021CD8F39923C9F3940F8C
S1133B20511DA3F39150504094F059F0882332F082
S1133B30660F771F881F91505040C1F79E3F510573
S1133B402CF7880F911D9695879597F908955F3FF7
S1133B50ACF0983E9CF0BB27869577956795B79512
S1133B6008F4B1609395C1F7BB0F58F711F460FFE7
S1133B70E8CF6F5F7F4F8F4F9F4FE3CF0C941D1C97
S1133B8016F00C94B11E0C94D81B68940C94D21BA0
S1133B900E94021CA8F39923C1F3AEF3DF93CF93E1
S1133BA01F930F93FF92C92FDD2788232AF02197B3
S1133BB0660F771F881FDAF720E030E040E85FEBFC
S1133BC09FE3883920F0803E38F021968F770E9459
S1133BD0451EE4EAF0E004C00E94451EE1EDF0E079
S1133BE00E94571D8B01BE01EC01FB2E6F5771091A
S1133BF07595771F880B990B0E94971B28E132E774
S1133C0041E35FE30E94731CAF2D9801AE01FF9066
S1133C100F911F91CF91DF910E945C1E0C94E91BC0
S1133C20FA01DC01AA0FBB1F9B01AC01BF5728F4AA
S1133C30222733274427507820C0B75190F4AB2F64
S1133C400024469537952795011CA395D2F30020AF
S1133C5071F0220F331F441FB395DAF30ED00C9486
S1133C60441E61307105A0E88A07B94630F49B010F
S1133C70AC016627772788279078309621F0208337
S1133C8031834283538308955058BB27AA270E9447
S1133C905C1E0C94E91B0E94DB1B38F00E94E21BA3
S1133CA020F039F49F3F19F426F40C94D81B0EF439
S1133CB0E095E7FB0C94D21BE92F0E94FA1B58F302
S1133CC0BA17620773078407950720F079F4A6F5FD
S1133CD00C941C1C0EF4E0950B2EBA2FA02D0B0196
S1133CE0B90190010C01CA01A0011124FF27591B3D
S1133CF099F0593F50F4503E68F11A16F040A22F43
S1133D00232F342F4427585FF3CF469537952795B3
S1133D10A795F0405395C9F77EF41F16BA0B620BB2
S1133D20730B840BBAF09150A1F0FF0FBB1F661FF9
S1133D30771F881FC2F70EC0BA0F621F731F841F3C
S1133D4048F4879577956795B795F7959E3F08F062
S1133D50B0CF9395880F08F09927EE0F9795879524
S1133D6008959F3F31F0915020F48795779567959A
S1133D70B795880F911D9695879597F90895DB015E
S1133D808F939F930E94F11EBF91AF91A29F800DCC
S1133D90911DA39F900DB29F900D11240895A1E24F
S1133DA01A2EAA1BBB1BFD010DC0AA1FBB1FEE1FB1
S1133DB0FF1FA217B307E407F50720F0A21BB30BFC
S1133DC0E40BF50B661F771F881F991F1A9469F778
S1133DD060957095809590959B01AC01BD01CF01D4
S1133DE008950E94331FA59F900DB49F900DA49F2A
S1133DF0800D911D112408952F923F924F925F924E
S1133E006F927F928F929F92AF92BF92CF92DF92E6
S1133E10EF92FF920F931F93CF93DF93CDB7DEB74B
S1133E20CA1BDB0B0FB6F894DEBF0FBECDBF0994DF
S1133E302A88398848885F846E847D848C849B8436
S1133E40AA84B984C884DF80EE80FD800C811B8144
S1133E50AA81B981CE0FD11D0FB6F894DEBF0FBE73
S1133E60CDBFED010895A29FB001B39FC001A39FF0
S1133E70700D811D1124911DB29F700D811D11249F
S1133E80911D08950F931F93CF93DF938230910573
S1133E9010F482E090E0E0915202F091530220E0AD
S1133EA030E0A0E0B0E0309719F140815181028107
S1133EB0138148175907C8F08417950769F41097B8
S1133EC031F012960C93129713961C9327C000930B
S1133ED052021093530222C02115310519F04217E2
S1133EE0530718F49A01BD01EF01DF01F801DBCF9C
S1133EF021153105F9F0281B390B2430310580F4E4
S1133F008A819B816115710521F0FB019383828372
S1133F1004C09093530280935202FE01329644C02F
S1133F20FE01E20FF31F81939193225031093983EB
S1133F3028833AC02091500230915102232B41F43E
S1133F4020911C0130911D013093510220935002A5
S1133F5020911A0130911B012115310541F42DB72F
S1133F603EB740911E0150911F01241B350BE09177
S1133F705002F0915102E217F307A0F42E1B3F0BFD
S1133F802817390778F0AC014E5F5F4F24173507C7
S1133F9048F04E0F5F1F509351024093500281939B
S1133FA0919302C0E0E0F0E0CF01DF91CF911F9147
S1133FB00F910895CF93DF93009709F481C0FC011A
S1133FC0329713821282A0915202B0915302109739
S1133FD081F420813181820F931F2091500230910E
S1133FE051022817390751F5F0935102E09350021A
S1133FF067C0ED0120E030E0CE17DF0740F44A81CE
S11340005B819E0141155105F1F0EA01F5CFD3839F
S1134010C28340815181840F951FC817D90759F471
S113402088819981840F951F0296918380838A8168
S11340309B81938382832115310529F4F0935302E4
S1134040E09352023DC0E901FB83EA83499159910F
S1134050C40FD51FEC17FD0761F480819181840F93
S1134060951F0296E90199838883828193819B83BA
S11340708A83E0E0F0E012968D919C91139700976B
S113408019F0FD01DC01F7CF8D919C9111979D01F1
S11340902E5F3F4F820F931F2091500230915102A7
S11340A02817390769F4309729F4109253021092B3
S11340B0520202C013821282B0935102A0935002A2
S11340C0DF91CF910895283008F027E03327DA01F3
S11340D0990F311D87FD916000966105710539F4D2
S11340E032602E5F3D9330E32A95E1F708959F3FB8
S11340F030F080387105610509F03C5F3C5F3D9309
S1134100913008F08068911DDF93CF931F930F9334
S1134110FF92EF92192F987F9695E92F9695969591
S1134120E90FFF27E05AFE4F99273327EE24FF2497
S1134130A701E70105900894079428F4360FE71EB9
S1134140F81E491F511D660F771F881F991F06947B
S1134150A1F70590079428F4E70EF81E491F561F8F
S1134160C11D770F881F991F661F0694A1F705903C
S1134170079428F4F80E491F561FC71FD11D880F36
S1134180991F661F771F0694A1F70590079420F4E2
S1134190490F561FC71FD81F990F661F771F881F07
S11341A00694A9F784911095177041F0D695C79598
S11341B057954795F794E7941A95C1F7E6E0F1E02F
S11341C068941590159135916591959105907FE2CC
S11341D07395E118F10A430B560BC90BD009C0F7CC
S11341E0E10CF11E431F561FC91FD01D7EF470330E
S11341F011F48A95E6CFE894015030F0080F0AF4E0
S11342000027021708F4202F2395022F7A3328F071
S113421079E37D932A95E9F710C07D932A9589F671
S1134220069497956795379517951794E118F10AB1
S1134230430B560BC90BD00998F023957E917395C7
S11342407A3308F070E37C932013B8F77E917061A1
S11342507D9330F0839571E37D9370E32A95E1F7C4
S11342601124EF90FF900F911F91CF91DF91992727
S113427087FD90950895FC010590615070400110F0
S1134280D8F7809590958E0F9F1F0895FC0161507B
S1134290704001900110D8F7809590958E0F9F1F64
S11342A008950F931F93CF93DF93FB01238121FD87
S11342B003C08FEF9FEF2CC022FF16C046815781A9
S11342C0248135814217530744F4A081B1819D01B3
S11342D02F5F3F4F318320838C93268137812F5F5B
S11342E03F4F3783268314C08B01EC01FB0100840C
S11342F0F185E02D0995892BE1F6D80116968D916B
S11343009C911797019617969C938E931697CE01BE
S1134310DF91CF911F910F9108950F931F93CF9326
S1134320DF93E0915602F0915702238121FF1BC0D5
S11343308C01D0E0C0E0F80181918F0160915602B8
S113434070915702DB011896ED91FC91199788231F
S113435031F00995892B79F3DFEFCFEFECCF8AE0C9
S11343600995892B19F08FEF9FEF02C08D2F9C2F99
S1134370DF91CF911F910F910895FA01AA27283058
S113438051F1203181F1E8946F936E7F6E5F7F4F1E
S11343908F4F9F4FAF4FB1E03ED0B4E03CD0670F9A
S11343A0781F891F9A1FA11D680F791F8A1F911DED
S11343B0A11D6A0F711D811D911DA11D20D009F43D
S11343C068943F912AE0269F11243019305D31937F
S11343D0DEF6CF010895462F4770405D4193B3E068
S11343E00FD0C9F7F6CF462F4F70405D4A3318F00F
S11343F0495D31FD4052419302D0A9F7EACFB4E0C0
S1134400A6959795879577956795BA95C9F7009777
S11344106105710508959B01AC010A2E0694579518
S1134420479537952795BA95C9F7620F731F841F6F
S10D4430951FA01D0895F894FFCF16
S113443A020103030000000200000000D60D000080
S113444A0000180C041060C0802000005A022000EA
S113445A4578706C6F72696E672E2E2E00556E6BDE
S113446A6E6F776E20737461746521005374617280
S10B447A74696E672E2E2E00FA
S9030000FC
